:020000040800F2
:100000006809002035020008A72E0008952D000879
:10001000A52E0008AF1C0008F933000800000000FE
:10002000000000000000000000000000AB2E0008EF
:10003000E71C000800000000A92E0008AD2E0008F3
:100040004F0200084F0200084F0200084F0200084C
:100050004F0200084F0200084F0200084F0200083C
:100060004F0200084F0200084F0200084F0200082C
:100070004F0200084F0200084F020008B11C0008A0
:100080004F0200084F0200084F0200084F0200080C
:100090004F0200084F0200084F0200084F020008FC
:1000A0004F0200084F0200084F0200084F020008EC
:1000B0004F0200084F0200084F0200084F020008DC
:1000C0004F0200084F0200084F0200084F020008CC
:1000D0004F0200082D330008ED3300084F020008DE
:1000E0004F0200084F0200084F02000800F002F81B
:1000F00000F090F80AA090E8000C82448344AAF132
:100100000107DA4501D100F085F8AFF2090EBAE82F
:100110000F0013F0010F18BFFB1A43F0010318473B
:10012000A8400000C8400000103A24BF78C878C139
:10013000FAD8520724BF30C830C144BF04680C60ED
:10014000704700000023002400250026103A28BF35
:1001500078C1FBD8520728BF30C148BF0B60704739
:100160006E2900F01E83702900F08984662903F04F
:100170002287652903F01F87672903F01C876129FF
:1001800003F01B8703681B0A28BF41F0800169291F
:1001900000F0C880642900F0C580752900F0C28095
:1001A0006F2900F01684782900F05584E92900F0C1
:1001B000B183E42900F0AE83F52900F0AB83EF2989
:1001C00000F01384F82900F054840368DB0928BF89
:1001D00041F08001632900F02083732900F025831A
:1001E000E32901F03380F32901F0388000207047C3
:1001F0001FB501F089F804000020002103F00EFD76
:10020000401C60600020002103F0F2FCE0601FBD94
:1002100010B510BD01F04AF81146FFF7E9FF03F0F1
:1002200015FB01F027F903B4FFF7F2FF03BC01F05F
:100230006FF900000948804709480047FEE7FEE7DC
:10024000FEE7FEE7FEE7FEE7FEE7FEE7FEE7FEE786
:1002500004480549054A064B704700000F2F000867
:10026000ED000008680300206809002068050020F0
:10027000680500200FB4044910B503AA029800F0E5
:10028000D9FA10BC5DF814FB0C0000200FB404492F
:1002900010B503AA029800F0CDFA10BC5DF814FB6B
:1002A0000C0000200FB41CB5084B06AA7B4469461D
:1002B0000090059800F08FFA04460020694600F08F
:1002C0009DFA20461CBC5DF814FB00004D050000A3
:1002D00070B50C460546012A05D02878800600D561
:1002E000EA69002302E0012305E05B1C934202D28D
:1002F000E05C0028F9D1A869E618C01AA861286A4C
:1003000018442862284600F0BAF904E0D5E9012132
:1003100014F8010B9047B442F8D3284600F0C5F911
:1003200070BD00002DE9F0410646002410687529D3
:10033000314616A510D000F0C9F9002802DA404273
:1003400013A507E031688A0701D512A502E0490725
:1003500004D511A5012401E000F0C1F900210A2211
:1003600006F1240709E0B0FBF2FCB0FBF2F302FB5C
:100370001C00303078541846491C0028F3D123461D
:100380002A463046BDE8F04100F0B2B90000000056
:100390002D0000002B000000200000002DE9F05F80
:1003A000894604464FF0000ADFF874B1FB44C0F8F8
:1003B00020A02046E1688847002874D0252806D070
:1003C000D4E901219047206A401C2062F1E7002611
:1003D0005F462046E16888472028054607DB312D27
:1003E00005D2781910F8200C08B10643F1E7B007E0
:1003F00001D526F00406C4F81CA00027C4F818A0F4
:100400002A2D09D0284603F01CF838B304EB8708DE
:10041000303DC8F8185019E059F8041B204604EB89
:1004200087029161E1688847012F054618D1E0698C
:10043000002820DA26F020061DE0D8F8180000EB8E
:10044000800005EB40003038C8F818002046E1680D
:100450008847054602F0F5FF0028EED1012F0AD0AB
:100460002E2D08D12046E16888477F1C0546022FC3
:1004700046F02006C4DBA069002803DA404246F0BB
:100480000106A061F00701D026F010066C2D0BD0FC
:10049000682D09D04C2D39D06A2D35D0742D35D02A
:1004A0007A2D33D016E038E0E1682F4620468847A1
:1004B000B842054609D16C2F26D04FF48060E16820
:1004C000064320468847054604E06C2F1AD04FF4B7
:1004D000807006430DB3A5F14100192802D82035DC
:1004E00046F400664A462946204626604E46FFF7F7
:1004F00037FE80B101280BD0F61D26F0070000F171
:10050000080956E74020E4E78020D8E70020D6E736
:1005100006F104094DE7284652E7206ABDE8F09F3E
:10052000383C000030B505460B462A4613F8014B0F
:1005300012F8010B08B1A042F8D01CB1002802D07B
:100540006D1CF1E7284630BD40EA0103024630B594
:100550009B0710D14FF0013400E008C208C91D1BF1
:100560009D4315EAC41FF8D013F0FF0102F8011BE8
:100570000DD01B0AF8E711F8013B002B02F8013BF4
:1005800005D011F8013B002B02F8013BF3D130BD3F
:1005900010B5431C02E010F8011B71B18107FAD1BC
:1005A0004FF0013202C88C1A8C4314EAC211F9D000
:1005B000C01A0A0603D0C01E10BDC01A10BD0A041E
:1005C00001D0801E10BD0902FCD0401E10BD421E8D
:1005D00012F8013F002BFBD111F8013B002B02F870
:1005E000013BF9D170474FF000020429C0F012809E
:1005F00010F0030C00F01B80CCF1040CBCF1020FD6
:1006000018BF00F8012BA8BF20F8022BA1EB0C01AA
:1006100000F00DB85FEAC17C24BF00F8012B00F8A0
:10062000012B48BF00F8012B70474FF0000200B5C6
:10063000134694469646203922BFA0E80C50A0E805
:100640000C50B1F12001BFF4F7AF090728BFA0E8B3
:100650000C5048BF0CC05DF804EB890028BF40F87F
:10066000042B08BF704748BF20F8022B11F0804FC1
:1006700018BF00F8012B704770477047704770B57E
:10068000044685690068C10601D5302600E02026B1
:10069000C00707D070BDD4E9012130469047206AD9
:1006A000401C20626D1EF6D570BD70B5044685698C
:1006B0000078C00707D170BDD4E901212020904700
:1006C000206A401C20626D1EF6D570BD09684A057F
:1006D00001D540B27047C905FCD500B27047096822
:1006E0004A0501D5C0B27047C905FCD580B2704734
:1006F0002DE9F0470D4699469246044600F124083C
:100700000168880604D5E06921F01001216000E04D
:100710000120A84201DD471B00E00027A1697A19EA
:1007200002EB0900081AA0612078C00602D4204616
:10073000FFF7A5FF002608E0D4E901211AF806001A
:100740009047206A401C761C20624E45F4DB2078DE
:10075000C0060AD52046FFF792FF06E0D4E9012142
:1007600030209047206A401C2062381EA7F1010704
:10077000F4DC07E0D4E9012118F805009047206A6D
:10078000401C2062281EA5F10105F3DC2046FFF77E
:100790008CFF2078000602D50220BDE8F0870120FA
:1007A000FBE711680268006A530501D508700AE08A
:1007B000D30501D5088006E0130603D5C217C1E9A9
:1007C000000200E0086001207047000001694A1C37
:1007D00002610878704700B58FB0CDE90131002182
:1007E000059105497944CDE9031011466846FFF7A4
:1007F000D5FD0FB000BD0000E5FFFFFF0A6802F85D
:10080000010B0A60704710B5436913B1AFF3008064
:1008100001E0FFF75DFD012010BD127800F1240119
:100820000A7000224A700122EDE711684FF0FF3292
:10083000E9E70000074B70B50D467B44FFF7CBFF9F
:100840000446284600F00EFD10B14FF0FF3070BD99
:10085000204670BD372E00002DE9FF5F15468A4601
:100860000446DFF8AC80F8440027D8E900103E4683
:10087000CDE9001010E03AF816106A4602A800F020
:10088000F5FC411C07D02178890603D5E2693918A7
:1008900091420DD80744761C2078800602D5E06985
:1008A000B84205DDAE42E6DB3AF816000028E2D198
:1008B000A069C01BA0612046FFF7E1FED8E9001047
:1008C000CDE90010002017E03AF818106A4602A897
:1008D00000F0CCFCB0F1FF3F81460BD000250DF1BC
:1008E000080B05E0D4E901211BF8050090476D1CB9
:1008F0004D45F7D308F10100B0428046E4DB206AA1
:10090000384420622046FFF7D0FEBDE8FF9F00007C
:10091000923700002DE9F0418046D21D22F00702F7
:100920000025D2E90002F52915A614D0011E72F1A6
:10093000000106DA0023D0EB030063EB020211A6EC
:1009400008E0D8F800108B0701D50FA602E0490790
:1009500001D50EA601251146002408F1240704E064
:1009600000F098F830323A55641C50EA0102F7D191
:100970002B46324621464046BDE8F041FFF7B8BE5F
:10098000000000002D0000002B00000020000000EF
:1009900030B4002100F1240408E002F00705D20879
:1009A000303542EA4372DB086554491C52EA0305BC
:1009B000F3D10468002310A2250707D5A40600D4AC
:1009C00021B1C46901230DA2641EC46130BCFFF7CC
:1009D0008FBE10B5044621461068FFF780FE024620
:1009E0002046BDE810400023D2E7D21D22F00701C7
:1009F000D1E90023CCE70000000000003000000037
:100A0000F0B40D460188090502D5214C7C4402E072
:100A10001F4C7C440E34002100F1240608E002F053
:100A20000F071209E75D42EA03721B097754491C5C
:100A300052EA0307F3D102780023120704D5702D80
:100A400006D009B1022311342246F0BCFFF750BE94
:100A500001231034F8E770B504460D4621461068AE
:100A6000FFF73DFE024629462046BDE870400023C0
:100A7000C6E7D21D22F00703D3E90023C0E70368CD
:100A8000126843F0200303600823C3610023B7E723
:100A9000F435000030B5B0F10A024FEA900E71F162
:100AA00000034EEA817EB0EB0E0061EB91014FEA4C
:100AB000101E4EEA017E10EB0E0041EB11114FEAC1
:100AC000102E4EEA016E10EB0E0041EB11214FEAA1
:100AD000104E4EEA014E10EB0E0041EB1141401852
:100AE00041F100014FEAD00040EA41704FEAD101E4
:100AF00010EB80054FEA810444EA907444EB010452
:100B00006D1944EB0404521BA3414FF0000348BF8E
:100B10000A3200D530BD401C41F1000130BD7047A4
:100B20002DE9FF4F0C461E464FF0FF378BB0D2E940
:100B30000001DDF860800A908A46C1F30A5505B9C4
:100B40003D46002108464FF00000BAF1000F00F4C6
:100B5000400005DA00EB80004FF4400101EA50004C
:100B60004FEA9059B9F1010F00DDB9460A9850EAF1
:100B70004A000ED044F61050A5F2FF3545432F141D
:100B8000B8F1000F1ED07542291E1EDDC9F100020A
:100B90001CE0B8F1010F4FF0000001D0302103E05C
:100BA000F24305E02154401CB042FBDB30460022FA
:100BB000002121540B99C1F80880C1E900200FB031
:100BC000BDE8F08FBD1B6D1CDEE74A4600DA6942C6
:100BD00006A800F0DDFB06AB93E8070003AB83E853
:100BE000070050460A9900F09AFC8DE80700A0F52E
:100BF00000501F3800900398002D0ADD42F21F01BB
:100C00004A460844002303A90390684600F003FF06
:100C100009E0A0F500504A461F38002303A90390BD
:100C2000684600F00DFF8DE807000004000C03D0BB
:100C30004FF0FF30410800E01046B8F1000F03D03C
:100C40000022009215461EE0751E05D4FFF722FF14
:100C5000303262556D1EF9D5B3460122084302D0E9
:100C600000227F1C04E02078302801D100227F1E62
:100C7000002A099784D01DE0112D07DAFFF70AFF3B
:100C8000303262556D1C50EA0102F5D1084302D0A2
:100C90000098C8B10EE00021681E05E0235C625C8C
:100CA00063542254401E491C8142F7DBAB46A81B0B
:100CB000401E0990002004F80B000B98099AC0F818
:100CC0000880C0E9002B7AE711264FF0000857E7AB
:100CD0002DE9F04F88460446D21D22F0070191B05D
:100CE000D1E90001CDE90A0102F087FB02460B9829
:100CF000C00F01D02D2007E02068810701D52B20EF
:100D000002E0202101EAC000032A099001D0072A4D
:100D100005DB03464146204600F0FAFA0BE1207855
:100D2000800601D5E06900E00620B8F1650F814634
:100D300006D0B8F1660F18D0B8F1670F70D131E066
:100D40000020B9F1110F009001DB112301E009F13E
:100D500001030AAA01A90CA8FFF7E2FEDDE90C7065
:100D6000002609F10105834647E001204B4600902B
:100D70004FF000470AAA01A90CA8FFF7D1FEDDE950
:100D80000DB00C995D46002610B909F101000D184F
:100D9000B9EB050003D4C0F1FF3609F10105A5EB5D
:100DA00009002BE0B9F1010F01DA4FF00109002031
:100DB000B9F1110F0090484601DD112300E0034610
:100DC0000AAA01A90CA8FFF7ABFEDDE90C704D469D
:100DD00000268346207800070AD4AB4500DA5D463A
:100DE00001A8012D04DD411911F8011C302907D09B
:100DF0004F4502DA17F1040F04DA012082460FE0B2
:100E00006D1EEEE7002F02DCED1B3E4403E0781C74
:100E1000A84200DD7D1CB81B00F1010A4FF000471D
:100E20002078000703D4AA4501DB4FF0FF3A0021E8
:100E3000B7F1004F0DF143088DF8431024D0022084
:100E40002B23002F01DA7F422D230A21021EA0F15D
:100E5000010000DC5FB197FBF1FC97FBF1F201FBB5
:100E60001C7C17460CF1300C08F801CDEEE7A8F118
:100E7000010003702188090501D5452100E06521A5
:100E8000A0F1010800F8011C09980FA9A1EB0807BF
:100E9000FF1D00B10120411901EBEA70A16938443E
:100EA000081A401EA0612078C00602D42046FFF731
:100EB000E6FB099828B1D4E901219047206A401C3B
:100EC00020622078C00622D52046FFF7D8FB1EE01E
:100ED000002E04DBB34502DD01A8805D00E0302078
:100EE000D4E901219047206A401C2062761CAAF1B7
:100EF00001005FEA000A0AD100F006FAC068016842
:100F0000405CD4E901219047206A401C2062281EE1
:100F1000A5F10105DCDC07E0D4E9012118F8010B9B
:100F20009047206A401C2062381EA7F10107F3DCBD
:100F30002046FFF7BAFB032011B041E62DE9F04F40
:100F400004460D46D21D22F0070089B0D0E9009773
:100F50004846394602F051FA0246F80F01D02D23D7
:100F600007E02068810701D52B2302E0202101EA58
:100F7000C0038DF820300BB1012000E00020032ACF
:100F8000824601D0072A04DB2946204600F0C0F93A
:100F90003FE12078800601D40D2500E0E569C7F324
:100FA0000A560D2D49DA00214FEA175B08464FF02B
:100FB0000000002F00F4400007DA00EB80004FF43F
:100FC000400100EBD07001EA60008115012901DDCC
:100FD0004FF0FF3100224FEA850CBCF1180F06D309
:100FE0001346ACF118004FF08052C24003E04FF4BA
:100FF000801323FA0CF30CF10C0CBCF1200F04D37A
:10100000ACF1200C09FA0CF001E007FA0CF0002911
:101010004FF0004801DD18B90FE00ED140450CD368
:1010200019EB02095F4121B9404502D19F4329EAEA
:101030000209BBEB175F00D0761C2088000502D5A3
:101040007B48784402E07A487844193808AA30236B
:1010500002F80A30037C0AF10101002E0AF1020AAB
:1010600053546A4602DC4FF0300101E04FF0310189
:101070004FF001088DF8001002D0A6F2FF3603E011
:1010800059EA470100D06B4E002D02DC2178090798
:1010900004D54FF002082E218DF80110C44600211E
:1010A0000BE0C7F303433F01C35C491C6D1E02F80C
:1010B0000830052908F1010801DA002DF1DC0021D2
:1010C0000CE000EB1973491C1B786D1E082902F80F
:1010D00008304FEA091908F1010801DA002DF0DCA7
:1010E00021688B0602D516E0A8F10108E04505DD70
:1010F00002EB080313F8013C302BF5D0B8F1000FD8
:1011000009DD02EB080313F8013C2E2B03D109077C
:1011100001D4A8F10108002D05DD3E2102F80810D8
:101120006D1E08F10108407C002E02F8080008F14D
:10113000010804DA2D20764202F8080002E02B2094
:1011400002F808000A214FF47A70864208F101087B
:101150000BDB96FBF0F3303302F8083096FBF0F32C
:1011600008F1010800FB136601E0642E0CDB64202B
:1011700096FBF0F3303302F8083096FBF0F308F1F9
:10118000010800FB136601E00A2E06DB96FBF1F076
:10119000303002F8080008F1010896FBF1F001FB7D
:1011A0001060303002F80800A16908F1010808EB6E
:1011B000050202EB0A00081AA0612078C00602D4DA
:1011C0002046FFF75CFA216A08AE01EB0A002062B4
:1011D00004E0D4E9012116F8010B9047BAF1010AA5
:1011E000F7D22078C00602D52046FFF748FA6E46AF
:1011F00009E016F8010B3E280FD0D4E901219047F1
:10120000206A401C2062B8F10108F2D22046FFF7A4
:101210004CFA09B00320BDE8F08F206A2844206210
:1012200003E0D4E90121302090476D1EEBD3F8E7AD
:10123000F92F000002FCFFFF10B5436913B1AFF3B3
:10124000008001E0FFF708FB012010BD128800F1CB
:10125000240182840022C2840122EDE711684FF04C
:10126000FF32E9E7007B00F08000704770B516465A
:101270000C46054600F040F8036893F80101012888
:1012800006D0FF2C0FD8185D68B101202C7070BDFE
:10129000D3F807013246214603F2071303442846D8
:1012A000BDE8704018474FF0FF3070BD754600F044
:1012B000EBF8AE4605006946534620F00700854628
:1012C00018B020B5FEF7C4FFBDE820404FF000067F
:1012D0004FF000074FF000084FF0000B21F007011E
:1012E000AC46ACE8C009ACE8C009ACE8C009ACE861
:1012F000C0098D467047000010B500F005F8001DCC
:1013000010BD00BF192900000048704724030020C9
:101310002DE9F0411F46044603260168072A01F41F
:10132000006004DB08B116A505E016A503E008B1CE
:1013300015A500E015A521F010002060A069C01ED1
:10134000A0610FB1401EA0612046FFF798F94FB190
:10135000D4E9012138469047206A401C2062C01C15
:10136000206206E0206AFAE7D4E9012115F8010BB2
:101370009047761EF8D22046FFF797F9BDE8F08136
:101380004E414E006E616E00494E4600696E660029
:101390002DE9F047814616468AB0354878440DC895
:1013A0008DE80D0032487844801C03AC0DC884E8F9
:1013B0000D0041F69B300844372190FBF1F290FB81
:1013C000F1F5A5F1800501FB12041B3C02D5644236
:1013D000012000E00020DFF898A080460027FA44B2
:1013E000AAF1BE0A0EE0E0070AD03246684607EBD3
:1013F000470101230AEB810100F022FB8DE8070081
:1014000064107F1C002CEED1194F7F44AE3F19E0D1
:10141000E80715D007EB04100DF1180A90E80E004C
:101420008AE80E00C068F04201D19819089032464F
:10143000012306A903A800F003FB03AB83E8070020
:101440006D10641C002DE3D14FF001033246694654
:10145000B8F1000F03A802D000F0DDFA01E000F0BF
:10146000EFFAC9E90001C9F808200AB0BDE8F08721
:10147000302D000010B50446AFF300802046BDE8D3
:101480001040FEF7D0BE0000004870470403002063
:101490004FF0013C50F8042B51F8043B9A4221D103
:1014A000A2EB0C03934313EACC1317D150F8042B8F
:1014B00051F8043B9A4215D1A2EB0C03934313EA73
:1014C000CC130BD150F8042B51F8043B9A4209D1AC
:1014D000A2EB0C03934313EACC13DBD04FF00000D4
:1014E000704700BFD01A01BAB1FA81F101F01801BA
:1014F00022FA01F0CB40C1F12001DBB2C0B2C01A28
:101500002CFA01F3D11A914311EAC311E6D17047C5
:1015100001491820ABBEFEE72600020070475FEAD3
:10152000400C08BF91F0000F4FEA8C234FEAC12214
:1015300043EA51514FEA1C5018BF00F5F0404FEA02
:10154000300018BF41F000415FEA6C5C00F0298078
:10155000BCF1FF3F08BF40F080407047130C06BF4E
:1015600012044FF0100C4FF0000C130E04BF1202C7
:101570000CF1080C130F04BF12010CF1040C930FB3
:1015800004BF92000CF1020CD30F04BF52000CF107
:10159000010C11464FF00002A0F11F00A0EB0C005F
:1015A000704711F0004F08BF704731F000413FF421
:1015B000D5AF0B0C06BF09044FF0100C4FF0000C18
:1015C0000B0E04BF09020CF1080C0B0F04BF09013C
:1015D0000CF1040C8B0F04BF89000CF1020CCB0F33
:1015E00004BF49000CF1010CCCF12003A0EB0C006E
:1015F00022FA03F302FA0CF241EA030100F10100BE
:10160000704720F07F4C80EA030023F07F47ACEB6B
:10161000070303F57C5300F0004003F1FF032DE9BD
:1016200080494FEA154B09B44FEA144325EA0B4EA3
:1016300024EA03480FF2042606EB132749083E78F4
:101640005FEA320203FB0667C7F5000707FB06F6F1
:101650004FEA54374FEAD64606F1020607FB066CFE
:10166000CCF1005C4FEA1C472CEA074C07FB06F460
:101670000CFB06F504EB15464FEA961634BF002026
:101680004FF000404FEAD13706FB07FC4FEA1C4CF5
:101690000CFB0BF7D21B03FB0CF761EB07010CFBF8
:1016A0000EF7B0EB074072EB17420CFB08F734BFA4
:1016B000A2EB0742B2EB074261EB17414FEA0C4441
:1016C0004FEA910706FB07FC4FEA1C4C0CFB0BF79B
:1016D000B0EBC74072EB573203FB0CF734BFA2EB01
:1016E000C742B2EBC74261EB57310CFB0EF7B0EBD0
:1016F000C70072EB57720CFB08F734BFA2EBC702AE
:10170000B2EBC70261EB5771039F4FEA816141EA77
:10171000921104EBCC044FEAD1374FEA826206FB08
:1017200007FC42EA90124FEA80604FEA1C4C0CFB27
:101730000BF7D21B03FB0CF761EB07010CFB0EF759
:10174000B0EB074072EB17420CFB08F734BFA2EB7B
:101750000742B2EB074261EB17414FEA8C554FEA63
:10176000910704EB9C2406FB07FC4FEA1C4C0CFB86
:101770000BF7B0EBC74072EB573203FB0CF734BFEB
:10178000A2EBC742B2EBC74261EB57310CFB0EF73D
:10179000B0EBC70072EB57720CFB08F734BFA2EB3B
:1017A000C702B2EBC70261EB577115EB4C254FEA4C
:1017B000816141EA92114FEA82624FEAD13742EAEF
:1017C000901206FB07FC44F100044FEA80604FEAE8
:1017D0001C4C0CFB0BF7D21B03FB0CF761EB070156
:1017E0000CFB0EF7B0EB074072EB17420CFB08F74F
:1017F00034BFA2EB0742B2EB074261EB174115EB96
:101800001C154FEA813141EA92414FEA823242EAA5
:1018100090424FEA80304FEA0C7644F1000448EAE7
:1018200003434EEA0B484FF0000EB2EB080C71EB8D
:10183000030724BF624639464EEB0E0E4FF0000BF5
:101840000018524149414BEB0B0BB2EB080C71EB0A
:1018500003077BF1000B24BF624639464EEB0E0EA8
:101860004FF0000B0018524149414BEB0B0BB2EB10
:10187000080C71EB03077BF1000B24BF624639466D
:101880004EEB0E0E51EA020718BF46F0010616EBAA
:101890000E7655F1000254F1000103D5BDE889012F
:1018A000BDE80088BDE88901BDE80048B61952418D
:1018B00041EB0101A3F10103704780807F7E7D7CB5
:1018C0007B7A7978777676757473727171706F6ED2
:1018D0006E6D6C6C6B6A6A6968686766666564647D
:1018E000636362616160605F5F5E5E5D5D5C5C5B07
:1018F0005B5A5A5959585857575656555555545476
:10190000535352525251515050504F4F4F4E4E4DD3
:101910004D4D4C4C4C4B4B4B4A4A4A49494948481F
:10192000484747474746464645454544444444435F
:1019300043434342424242414141002B9C4630D402
:1019400077002BD01CB54FEA370703B44FF01000D7
:101950004FF01001BAF1000F06D0BCF1000FDCBF50
:1019600040F0080040F008014FF000000FBCBDE857
:1019700010400BF1010BBBF1010F08BF5FEA170725
:1019800022BF12F1010211F101014FF0004143F1B8
:10199000000300F0004043EA00007047F9D3570805
:1019A000D0E746EA064613F1400F4FEA16461FDD20
:1019B00013F1200FDFBF16430A46002120335B429C
:1019C000BED0C3F1200746EA064602FA07F74FEAFF
:1019D000164646EA0706C3F1200722FA03F201FA87
:1019E00007F721FA03F14FF0000342EA0702A7E7E5
:1019F00046EA020646EA06464FEA164646EA010667
:101A0000BCBF46EA0646360C4FF000034FF000021A
:101A10004FF0000194E72DE9804C9A46934670B44C
:101A200091E8380007C831EA400C48BF34EA430C5B
:101A300003D5FFF7E6FDFFF780FFF0BCBDE8008CA3
:101A40002DE9804C9A46934670B491E8380007C857
:101A500010F0804F08BF13F0804F03D100F005F85D
:101A6000FFF76BFFF0BCBDE8008C20F07F4780EAF9
:101A7000030023F07F4C07EB0C03A3F57C5300F02D
:101A80000040A3F1FE0392F0000F00F0B38095F048
:101A9000000F00F077802DE901494FEA11404FEA2D
:101AA000144621EA004800FB06FC24EA064708FB2E
:101AB00006F607FB08F800FB07F718EB06484CEBA7
:101AC000164C4FEA124B18EB07484FEA15464CEB01
:101AD000174022EA0B4E0BFB06FC25EA06470EFBDD
:101AE00006F607FB0EFE0BFB07F71EEB064E4CEB54
:101AF000164C4FF000061EEB074E4CEB174B18EB45
:101B00000B0840F1000018EB0E0B58EB000840F1F9
:101B100000008F1A4FF000013CBFC943661B14BF81
:101B2000B5EB040C00213CBFC943F61B4FEA174438
:101B30004EEA8E0E27EA04454FEA1C4704FB076273
:101B40002CEA074C05FB07F70CFB05F604FB0CFC25
:101B500016EB074642EB174216EB0C4642EB1C42D3
:101B60001BEB060658EB0202414146EA9E0601D5F0
:101B7000BDE80189B619524141EB0101A3F101030E
:101B8000BDE801894FEA14454FEA114724EA0546AA
:101B900021EA074C05FB07F406FB07F70CFB06F1EF
:101BA00005FB0CFC11EB074144EB17444FEA1247CD
:101BB00011EB0C4144EB1C4422EA074C05FB07F2F5
:101BC00006FB07F70CFB06F605FB0CFC16EB0746BD
:101BD00042EB174216EB0C4642EB1C456A1854F1D7
:101BE000000148BF7047B619524141EB0101A3F112
:101BF0000103704795F0000F37D04FEA11424FEACA
:101C0000144721EA024624EA074C02FB07F106FBCF
:101C100007F70CFB06F402FB0CFC14EB074441EB4A
:101C200017414FEA154714EB0C4441EB1C4125EAE0
:101C3000074C02FB07F506FB07F70CFB06F602FB59
:101C40000CFC16EB074645EB174516EB0C4645EB2F
:101C50001C42121951F1000148BF7047B619524198
:101C600041EB0101A3F1010370474FEA14454FEA2C
:101C7000114724EA054621EA074C05FB07F106FB5C
:101C800007F70CFB06F24FF0000605FB0CFC12EB0D
:101C9000074241EB174112EB0C4251EB1C4148BF8C
:101CA0007047921841EB0101A3F101037047FEE771
:101CB000014800F08BB80000B800002030B590F863
:101CC00040500124AC40C56B6C600468636043689D
:101CD000102B036803D099600068C26030BD9A6021
:101CE0000068C16030BD704772B6FEE710B590F86D
:101CF00021100022022905D00421816380F82020D0
:101D0000012010BD01680B6823F00E030B60016811
:101D10000B6823F001030B6090F84030C46B012185
:101D200001FA03F3636080F8211080F82020104648
:101D300010BD000010B590F821100024022903D036
:101D40000421816301243DE001680A6822F00E024B
:101D50000A6001680A6822F001020A601A4A0168F2
:101D6000914201D1012121E0174A1432914201D15F
:101D700010211BE0144A2832914201D1891515E047
:101D8000114A3C32914201D189140FE00E4A50327F
:101D9000914202D14FF4803108E00B4A6432914203
:101DA00002D14FF4801101E04FF08071064A083AE9
:101DB0005160012180F82110002180F82010416B32
:101DC00001B18847204610BD080002402DE9F05FB0
:101DD000C16B0C6801680B68D0F840C0042202FA9D
:101DE0000CF2494DDFF824A1494E4A4FDFF828B1E3
:101DF000DFF828E122422CD05A072AD50A68920639
:101E000003D40A6822F004020A600168A94201D1E1
:101E1000042219E0514501D1402215E0B14202D11E
:101E20004FF4806210E0B94202D14FF480420BE0DF
:101E3000594502D14FF4802206E0714502D14FF49A
:101E4000800201E04FF080622F4908394A60C16A80
:101E50003BE04FF0020808FA0CF818EA040F4FF0C4
:101E600000094FF0010235D05FEA837832D50B6864
:101E70009B0605D40B6823F00A030B6080F8212031
:101E80000168A94201D1022219E0514501D1202265
:101E900015E0B14202D14FF4007210E0B94202D114
:101EA0004FF400520BE0594502D14FF4003206E0E6
:101EB000714502D14FF4001201E04FF00072124957
:101EC00008394A6080F82090816A00291AD0BDE85C
:101ED000F05F0847082505FA0CF5254212D01B07CC
:101EE00010D50B6823F00E030B6090F84010C36B05
:101EF00002FA01F15960826380F8212080F8209075
:101F0000016BE2E7BDE8F09F080002401C000240C0
:101F10003000024044000240580002406C00024081
:101F200030B528B308C8134914221944B1FBF2F1A3
:101F30008900C16310498163022141771A6843F621
:101F4000F0718A43D0E900142143D0E902452C43C3
:101F50002143046921434469214384692143114396
:101F6000196000214163012242770177084630BDA4
:101F7000012030BDF8FFFDBF0000024070B50446EF
:101F800090F82000002501280CD0012084F82000C2
:101F900094F821600020012E06D084F8200002254C
:101FA000284670BD022070BD022684F82160A0631F
:101FB0002068066826F0010606602046FFF77EFED0
:101FC000E06A00282068016802D041F00E0106E0B6
:101FD00021F0040101602068016841F00A010160FC
:101FE0002068016841F001010160D9E770B504463D
:101FF00000F004F90546601C02D00448007804444F
:1020000000F0FCF8401BA042FAD370BD1400002081
:102010002DE9F84FDFF8B8910024A9F1040B23460D
:102020000F2709F1040AABF1040EC9E00125A54010
:102030002A40AA427DD1674ED1F804C0ACEB060815
:10204000B44532D014DCBCF1030F3AD009DCBCF14A
:10205000000F2AD0BCF1010F1CD0BCF1020F31D10E
:102060001DE0BCF1110F17D0BCF1120F2AD119E0FD
:10207000B8F5881F19D006DCB8F5803F15D0B8F543
:10208000801F1FD111E0B8F5001F0ED0B8F5041F56
:1020900018D10AE0CB6815E0CB681B1D12E0CB68B5
:1020A00008330FE0CB680C330CE08B682BB1012BAD
:1020B0004FF0080303D0456104E0042302E005610A
:1020C00000E00023FF2A01D8064601E000F10406E3
:1020D0004FEA840501D9A5F12005D6F8008007FA5A
:1020E00005FC28EA0C0803FA05F548EA0508C6F8D5
:1020F00000804D68ED0062D5374DAE6946F00106AF
:10210000AE61AD6924F0030605F001050095334D7D
:1021100006EB050CDCF80850A607360F07FA06F8A0
:1021200025EA0805DFF8B880404503D14FF00008E4
:1021300017E044E0DFF8AC80404502D14FF00108E1
:102140000FE0DFF8A480404502D14FF0020808E01C
:10215000DFF89880404502D14FF0030801E04FF0CE
:10216000040808FA06F848EA0508CCF808804D6823
:10217000D9F80060ED024D4601D5164300E09643C4
:102180002E604D68DAF80060AD02554601D5164361
:1021900000E096432E604D68DBF80060AD035D46BD
:1021A00001D5164300E096432E604D68DEF80060CE
:1021B000ED03754601D5164300E096432E60641C7E
:1021C0000D682A46E5407FF431AFBDE8F88F000086
:1021D00008040140000011100010024000000140FE
:1021E00000080140000C01400010014000140140B3
:1021F0000AB1016170470904FBE7000001488068EB
:1022000070470000140000200248816802781144E1
:102210008160704714000020074810B5016841F044
:1022200010010160032000F075F80F2000F006F89F
:1022300000F024F8002010BD0020024070B50D4DC4
:1022400004464FF47A712878B1FBF0F00A49096826
:10225000B1FBF0F000F0DCFA48B9102C07D20022F4
:102260002146501E00F036F800206C6070BD012041
:1022700070BD000014000020200000200C4808B5AC
:10228000816941F001018161816901F001010091E1
:10229000C16941F08051C161C06900F08050009077
:1022A0000448416821F0E06141F00071416008BDDF
:1022B0000010024000000140002809DB00F01F026E
:1022C000012191404009800000F1E020C0F8001198
:1022D00070470000F0B40E4B1B680C46C3F302239A
:1022E000C3F10705042D00D90425191D072901D2C2
:1022F000002300E0DB1E012606FA05F1491E2140FD
:1023000099409E40761E16403143F0BC01F089B8DA
:102310000CED00E0064900F0070208684FF6FF03E5
:10232000184040EA0220034A10430860704700004A
:102330000CED00E00000FA052DE9F0470F4605001E
:1023400061D0434E306800F00700B84209D23068CF
:1023500020F0070038433060306800F00700B842D2
:1023600051D128683B4C810712D5400703D56068DE
:1023700040F4E06060602878000703D5606840F4AE
:10238000605060606068A96820F0F00008436060F9
:102390002878C00728D06868012810D02168022852
:1023A00010D0890700292EDA616821F0030101436A
:1023B0006160FFF723FF804641F288390DE0216814
:1023C0008903EFE78901EDE7FFF718FFA0EB0801AC
:1023D000494502D90320BDE8F0876068696800F0CC
:1023E0000C00B0EB810FEFD1306800F00700B8426D
:1023F0000BD9306820F0070038433060306800F0B7
:102400000700B84201D00120E5E72878400705D54C
:102410006068E96820F4E06008436060287800079D
:1024200006D56068296920F4605040EAC100606008
:1024300000F038F86168084AC1F30311515CC840E4
:102440000649086006480068FFF7F8FE0020C2E76A
:102450000020024000100240D03F00082000002071
:10246000180000200448054900684968044AC1F37F
:102470000221515CC840704720000020001002403B
:10248000E03F00080448054900684968044AC1F370
:10249000C221515CC840704720000020001002405B
:1024A000E03F00080E4A51680E4801F00C03042B6F
:1024B00011D0082B0FD10C48C1F38343C903C05C72
:1024C0000AD55168084AC1F34041921E515C054A41
:1024D0005043B0FBF1F07047044948437047000097
:1024E0000010024000127A00C03F000800093D00C1
:1024F0002DE9F84F040070D02078C04DC00749D0B6
:102500006868C0F38100012807D06868C0F38100C3
:10251000022809D16868C00306D52868800339D528
:1025200060680028E7D035E06068B0F5803F0BD0E8
:1025300010B1B0F5A02F11D0286820F480302860A9
:10254000286820F4802002E0286840F48030286069
:10255000606890B1FFF752FE06460AE0286840F432
:1025600080202860F0E700BFFFF748FE801B64284A
:1025700073D828688003F7D50CE0FFF73FFE0646C6
:1025800005E000BFFFF73AFE801B6428F0D82868FA
:102590008003F7D420789A4E80074FF001094FF05E
:1025A000000839D5686810F00C0F07D06868C0F3D0
:1025B0008100022809D16868C00306D42868800712
:1025C00014D52069012808D110E02069B0B1C6F8FF
:1025D0000090FFF713FE074605E00AE1FFF70EFE45
:1025E000C01B0228C4D828688007F7D5286861690D
:1025F00020F0F80040EAC10028600DE0C6F8008035
:10260000FFF7FCFD074604E0FFF7F8FDC01B0228BA
:1026100023D828688007F7D4207800072CD579487C
:10262000A169D9B1C0F80090FFF7E8FD074604E0C2
:10263000FFF7E4FDC01B02280FD8686A8007F7D5B2
:1026400071484FF4FA510068B0FBF1F0009000BF00
:102650000098411E0091FAD20EE080E0C0F80080A0
:10266000FFF7CCFD074604E0FFF7C8FDC01B0228BA
:1026700075D8686A8007F7D42078400760D5E86984
:102680000027C00008D4E86940F08050E861E8699C
:10269000012700F0805000905C480168C90513D400
:1026A0000168834641F480710160FFF7A7FD82460F
:1026B00006E000BFFFF7A2FDA0EB0A0064284ED899
:1026C000DBF80000C005F5D5E06801280AD008B1A4
:1026D000052813D0286A20F001002862286A20F01B
:1026E000040002E0286A40F001002862E06841F23C
:1026F000883B98B1FFF782FD82460BE0286A40F0E4
:1027000004002862EEE700BFFFF778FDA0EB0A01A6
:1027100059455AD8286A8007F6D50CE0FFF76EFDB8
:10272000824605E0FFF76AFDA0EB0A0159454CD847
:10273000286A8007F6D41FB1E86920F08050E8616C
:10274000E06988B36968C1F38101022944D0022895
:10275000C6F8608004D0FFF751FD044638E034E04D
:10276000FFF74CFD074604E0FFF748FDC01B0228B9
:102770002BD828688001F7D4206AB0F5803F05D1B6
:102780006868A16820F4003008436860D4E9080153
:102790000843696821F4741108436860C6F86090C2
:1027A000FFF72CFD044606E025E000BFFFF726FDFD
:1027B000001B022809D828688001F7D51BE000BF5C
:1027C000FFF71CFD001B022802D90320BDE8F88F8B
:1027D00028688001F4D40EE00128F7D06868226AE6
:1027E00000F48031914204D1616A00F47010884293
:1027F00001D00120EAE70020E8E7000000100240D5
:10280000000042428004424220000020007000404C
:1028100010B5401EB0F1807F01D3012010BD4FF0F4
:10282000E02460610F21601700F0FBFD0020A06133
:1028300007202061002010BD704710B504460068D5
:10284000406994F84110C0F3C010212911D180B122
:102850002068143050E8001F21F0800140E8001289
:10286000002AF5D1A06B08B1FFF740FA204600F02E
:10287000F5FB2068406994F84210C0F380102229CB
:1028800011D180B12068143050E8001F21F04001C0
:1028900040E80012002AF5D1E06B08B1FFF726FAF4
:1028A000204600F0B4FB002010BD7047F8B5016869
:1028B00004460868CA684B6910F00F0F4FF0000516
:1028C00059D003F0010602F49077374365D0C10771
:1028D00005D0D10503D5616C41F001016164410768
:1028E00005D5D90703D0616C41F00201616481070D
:1028F00005D5D90703D0616C41F00401616401077B
:1029000007D502F02001314303D0616C41F008018A
:102910006164616C00293AD0800604D5900602D526
:10292000204600F0A9FB20684069616CC0F380106C
:10293000090700D460B3204600F069FB20684069B5
:10294000400621D52068143050E8001F21F04001D6
:1029500040E80012002AF5D1E06BA8B16D4941634F
:10296000E06BFFF7E7F9002811D0E06B416B01B095
:10297000BDE8F040084783060FD593060DD52046E5
:10298000BDE8F84000F078BB2046FFF78EFFF8BDA9
:102990002046FFF78AFF6564F8BD266B2023012ED1
:1029A0007CD1C6067AD5D60678D5086848680090E6
:1029B00048694FF00206400640D5E16B0868406860
:1029C0000004000CE8D0A28D8242E5D9E085886938
:1029D00020282DD020680C3050E8001F21F4807191
:1029E00040E80012002AF5D12068143050E8001F9A
:1029F00021F0010140E80012002AF5D120681430CE
:102A000050E8001F21F0400140E80012002AF5D1F3
:102A100084F84230256320680C3050E8001F21F014
:102A2000100140E80012002AF5D1E06BFFF75EF9D3
:102A30006663A08DE18D401A81B22AE0A08DE18D00
:102A4000401A81B2E08D0028A6D00029A4D02268C7
:102A50000C3252E8000F20F4907042E80007002F7B
:102A6000F5D12068143050E8002F22F0010240E830
:102A70000027002FF5D184F84230256320680C3000
:102A800050E8002F22F0100240E80023002BF5D17F
:102A900066632046FFF7D0FEF8BDFFE705062BD59D
:102AA000150629D594F841002128F5D1A068B0F584
:102AB000805F01D12069B0B1206A411C2162216888
:102AC00000784860E08C401E0004000CE084E3D1F4
:102AD0002068C16821F08001C1602068C16841F0B0
:102AE0004001C160D8E7206A0088C0F30800486050
:102AF000206A801C2062E5E74006CDD55006CBD584
:102B0000CA68204622F04002CA6084F8413000F0D2
:102B100040F9C1E7112F000870B5040004D094F803
:102B20004100002510B106E0012070BD84F840503E
:102B3000204600F023F8242084F841002068C16872
:102B400021F40051C160204600F0F8FA20680169C4
:102B500021F4904101612068416921F02A0141611D
:102B60002068C16841F40051C1606564202084F888
:102B7000410084F842006563002070BDF0B585B067
:102B8000002400940194029403940646374F03688E
:102B9000374902200322374DBB423AD18B6943F4B7
:102BA00080438B618B6903F4804304938B6943F00A
:102BB00004038B618969039201F00401049101020D
:102BC000CDE9001069462846FFF722FA2815CDE91D
:102BD0000004694628460294FFF71AFA274D264852
:102BE000C5E900048020C5E9024020202C61C5E928
:102BF00005402846EC61FFF793F908B1FFF774F838
:102C0000F5630022114625206E62FFF763FB252045
:102C100028E01B4EB34227D1CB6943F40033CB618C
:102C2000CB6903F4003304938B6943F004038B6195
:102C30008969039201F0040104910421CDE9001097
:102C400069462846FFF7E4F90820CDE90004694603
:102C500028460294FFF7DCF9002211462620FFF7F0
:102C600039FB2620FFF728FB05B0F0BD00380140F6
:102C7000001002400008014058000240B800002047
:102C80000044004090F84230202B01D002207047D1
:102C900021B11AB10023036300F0ACBA01207047E0
:102CA00090F84230202B01D00220704721B11AB198
:102CB0000023036300F0E6BA01207047094930B4ED
:102CC000884209D1084A5188B1F5967F04D2074C51
:102CD00013786354491C518030BC01220249FFF72C
:102CE000DFBF00007000002024000020D801002079
:102CF00070472DE9F843044690F84100984616467F
:102D00000D46202802D00220BDE8F88385B17EB1AF
:102D100000206064212084F84100FFF76FFAA68448
:102D20008146E684A0682027B0F5805F02D003E0EA
:102D30000120E9E7206910B12E4600250EE00026AB
:102D40000CE08021204600F0B8FAA8B9C6B116F808
:102D5000010B21684860E08C401EE084E08C4B460B
:102D60004FF00002CDF800800028EAD14FF040017A
:102D7000204600F0A2FA40B184F841700320C3E776
:102D800035F8020BC0F30800E3E784F84170002037
:102D9000BAE77047FEE70000094808B5416941F00D
:102DA000010141614069002200F0010000901146DC
:102DB0000F20FFF78FFABDE808400F20FFF77CBA1D
:102DC0000010024070B586B00024184800940194A9
:102DD00002940394816941F010018161816901F0DD
:102DE00010010491816941F020018161816901F044
:102DF00020010491816941F00401816180690C4ED8
:102E000000F004004FF4005504900022294630469B
:102E1000FFF7EEF901200095CDE9010402200390AF
:102E200069463046FFF7F4F806B070BD0010024066
:102E3000001001400C4810B50A4901604FF4E1311F
:102E40004160002181600C22C160C0E904128161EF
:102E5000C161FFF761FE002803D0BDE81040FEF716
:102E600043BF10BD00380140280000200C4810B5B9
:102E70000A4901604FF4E1314160002181600C2278
:102E8000C160C0E904128161C161FFF745FE0028FD
:102E900003D0BDE81040FEF727BF10BD004400403E
:102EA00070000020FEE7FEE770477047FFF7ACB9FF
:102EB00030B58FB028216846FDF7B7FB14210AA86A
:102EC000FDF7B3FB01210804CDE9001000240294B2
:102ED00002250491CDE907504FF4E01009906846AF
:102EE000FFF706FB08B172B6FEE70F20CDE90A0531
:102EF0004FF48060CDE90C4002210AA80E94FFF740
:102F00001BFA002801D072B6FEE70FB030BD704743
:102F100010B5406A0021C185C184FFF7C6FC10BD11
:102F200070B5446A2068406994F84110C0F3C0103D
:102F30000025212904D118B1E584204600F08EF83F
:102F40002068406994F84210C0F38010222904D10F
:102F500018B1E585204600F05AF8606C40F010008A
:102F600060642046FFF7A1FC70BD10B50146406AC1
:102F7000096809684FF0000289062ED4C2850168ED
:102F80000C3151E8003F23F4807341E80034002CF9
:102F9000F5D10168143151E8003F23F0010341E805
:102FA0000034002CF5D10168143151E8003F23F0C2
:102FB000400341E80034002CF5D1202180F8421074
:102FC000016B012909D101680C3151E8003F23F060
:102FD000100341E80034002CF5D14263016B012954
:102FE00002D0FFF76BFE10BD818DFFF725FC10BDF1
:102FF00010B5406A01214163016B012902D0FFF73E
:1030000077FE10BD818D4908FFF716FC10BD0168E1
:103010000C3151E8002F22F4907241E80023002B7C
:10302000F5D10168143151E8002F22F0010241E886
:103030000023002BF5D1016B012909D101680C3166
:1030400051E8002F22F0100241E80023002BF5D1B7
:10305000202180F8421000210163704701680C3183
:1030600051E8002F22F0C00241E80023002BF5D1E7
:10307000202180F84110704708B590F842102229AD
:1030800001D0022008BD82684FF480539A4201D1DA
:10309000016921B1816A9A421BD04AB10AE00268F3
:1030A000816A5268C2F308020A80816A891C08E0BA
:1030B000026972B10268526802F07F020A70816A86
:1030C000491C8162C18D491E0904090CC18503D0C8
:1030D0001BE002685268F1E70168CA6822F020022A
:1030E000CA600168CA6822F48072CA6001684A69CD
:1030F00022F001024A61202180F842100021416340
:10310000026B012A03D0FFF7D9FD002008BD01633F
:1031100001680C3151E8002F22F0100241E8002331
:10312000002BF5D101680A68D20602D50A68496801
:103130000091818DFFF780FBE7E7000070B5044642
:1031400000680169E26821F440511143016121697D
:10315000A0680843616908432168CA6841F20C63AA
:103160009A430243CA6020684169A26921F4407110
:10317000114341611E492068884202D1FFF782F95C
:1031800001E0FFF76FF900EBC00101EB001260688E
:1031900064218000B2FBF0F3B3FBF1F36FF018068B
:1031A0007343B2FBF0F5B2FBF0F605EB8305322377
:1031B00003EB0515B5FBF1F5B6FBF1F605F0F005EF
:1031C00005EB0615B2FBF0F6B2FBF0F0B0FBF1F048
:1031D0006FF01802504306EB800003EB0010B0FBC9
:1031E000F1F0216800F00F002844886070BD0000F5
:1031F0000038014038B581620446828500201346BC
:103200006064222284F84220E56B1B4AAA62E56BC7
:103210001A4AEA62E56B1A4A2A63E26B50630A466D
:103220002168E06B091DFEF7A9FE2068016840686F
:103230000090206948B120680C3050E8001F41F42C
:10324000807140E80012002AF5D12068143050E85F
:10325000001F41F0010140E80012002AF5D120686A
:10326000143050E8001F41F0400140E80012002AED
:10327000F5D1002038BD00006B2F0008F12F0008A9
:10328000212F000881628285C285002141642221AC
:1032900080F84210016921B10168CA6842F4807265
:1032A000CA6001684A6942F001024A610068C16867
:1032B00041F02001C160002070472DE9F843984695
:1032C00017460D460446089E24E0701C22D0FEF7E7
:1032D00095FFA0EB0800B0421AD8CEB12068C168B3
:1032E000490717D5802D15D0402D13D00168C9434B
:1032F00009070FD401680025406800902046FFF7B9
:1033000086FE0820606484F840500120BDE8F88300
:103310000320FBE72068006835EA000004D00020A5
:10332000B842D2D00020F1E70120F9E738B52548AE
:1033300000680168C943C9063FD401680025406898
:1033400000902048FFF779FA1F4C20496420207034
:103350000878532801D1607818B16078012805D029
:103360001FE001206070A078401CA070A078142895
:103370000BD2164B6433C0B20A5C452A00D01A54F3
:10338000401CC0B2A0701428F5D310490522C831E2
:10339000A1F1640000F0FAFA0C4864216430FDF7F2
:1033A00044F96570A570257064210848FDF73DF962
:1033B000642206490348FFF765FCBDE83840014830
:1033C000FFF774BA2800002010000020FC00002045
:1033D00010B54FF496710348FDF705F90249002036
:1033E000488010BDD8010020240000200148FFF7CC
:1033F0005DBA000070000020FEE7490050EAC120DD
:1034000018BF04204A0D18BF40F0010040F2FF72BF
:10341000B2EB515F08BF40F00200012808BF052051
:1034200070470907090E002804DB00F1E02080F84E
:103430000014704700F00F0000F1E02080F8141D28
:10344000704730380A2801D20120704700207047A9
:1034500030B5A7B098216846FDF7E7F8982168468F
:10346000FDF7E3F838A16846FDF76EF83AA1684623
:10347000FDF7ADF83BA16846FDF7A9F83AA168460B
:10348000FDF7A5F837A16846FDF7A1F83949684668
:10349000FDF79DF838A16846FDF799F842F21075DE
:1034A00005232A4635A1684600F0A4FA012801D078
:1034B000082042E098216846FDF7B7F831A1684638
:1034C000FDF742F8334C68466168FDF780F832A199
:1034D0006846FDF77CF86846A168FDF778F82FA1EB
:1034E0006846FDF774F805232A462DA1684600F0CA
:1034F00081FA0128DCD105232A462DA130A000F055
:1035000079FA0128D4D198216846FDF78EF831A1C7
:103510006846FDF719F832A16846FDF758F83DA155
:103520006846FDF754F80A2340F6B8323BA16846D6
:1035300000F060FA012802D00A2000F075F864203B
:10354000FEF754FD27B030BD41542B4D434F4E463E
:1035500049473D22000000006169725F7465737421
:1035600000000000222C220056587030613348378A
:103570006D43000034410008220D0A004F4B0D0A34
:103580000000000041542B4D495053544152543DCA
:103590002200000000000020222C00000D0A000084
:1035A000434F4E4E454354204F4B0D0A0000000040
:1035B000434F4E4E41434B204F4B0D0A000000003D
:1035C00041542B4D434F4E4E4543543D312C3132E7
:1035D000300D0A0041542B4D5355423D220000004E
:1035E000247379732F56587030613348376D432FE9
:1035F0006169725F746573742F7468696E672F7088
:10360000726F70657274792F706F73742F7265703A
:103610006C790000222C300D0A0000005355424105
:10362000434B0D0A00000000014609A0FCF72EFEE6
:103630000A4C0B4D0A2364220AA10CA000F0DAF90F
:10364000012800D12C60C820FEF7D0FCF2E7000072
:103650004552524F5225640D0A0000000400FA053D
:103660000CED00E04F4B0D0A0000000041540D0A24
:103670000000000038B504468DF800000223012246
:1036800069460248FFF735FB204638BD2800002078
:1036900038B50A234FF4FA7242A144A000F0AAF907
:1036A000012801D001204AE040F6B8340A2322461E
:1036B0003CA140A000F09EF90128F3D10A23224644
:1036C00038A13EA000F096F90128EBD16420FEF766
:1036D0008DFC0A25234633A23BA13DA0009500F0B6
:1036E00009FA0128DED16420FEF780FC0A23224675
:1036F0002CA13AA000F07EF90128D3D16420FEF776
:1037000075FC234627A238A138A0009500F0F2F9F5
:1037100001280AD0234623A237A134A0009500F047
:10372000E9F9012801D0032009E00A2341F2883297
:103730001CA132A000F05EF9012802D00D20FFF795
:1037400073FF234617A231A133A0009500F0D2F9F0
:103750000128A7D16420FEF749FC0A23224611A1C3
:1037600030A000F047F901289CD16420FEF73EFC10
:103770000A2322460BA12EA000F03CF9012891D18A
:103780006420FEF733FC23460BA22CA12CA000954D
:1037900000F0B0F9012885D1BDE838406420FEF77B
:1037A00025BC00004F4B0D0A0000000041540D0ADB
:1037B00000000000415426460D0A000041542B43EE
:1037C00053510D0A000000005245414459000000C9
:1037D00041542B4350494E3F0D0A000041542B43A6
:1037E0004F50533F0D0A00002C31000041542B4331
:1037F0005245473F0D0A00002C35000041542B4331
:103800004950534855540D0A000000002B434741CE
:1038100054543A203100000041542B434741545442
:103820003F0D0A0041542B435354540D0A0000002D
:1038300041542B43494943520D0A00002E00000019
:1038400041542B43494653520D0A0000FEF7E4FC55
:10385000FFF72EFBFFF7B6FAFFF79EFAFFF7EAFA3B
:10386000FFF704FB01220D490D48FFF719FA012269
:103870000A490C48FFF714FAFFF70AFF6420FEF725
:10388000B5FB4FF47A750A24FFF7E2FD2846FEF7F0
:10389000ADFB214604A000F00DF8F4E72400002061
:1038A000280000207000002074656D705F76616CE8
:1038B0007565000070B5ADF5007D0C4605464FF40A
:1038C000807631466846FCF7B0FE314640A8FCF7EA
:1038D000ACFE31466846FCF7A8FE314640A8FCF72E
:1038E000A4FE14A16846FCF772FE15A16846FCF719
:1038F0006EFE1FA16846FCF76AFE23462A461F4952
:1039000040A8FCF7CFFC40A96846FCF760FE0A23FC
:1039100040F6B8321AA1684600F06CF8012802D0CF
:103920000120FFF781FE6420FEF760FB0DF5007DAE
:1039300070BD000041542B4D5055423D2200000007
:10394000247379732F56587030613348376D432F85
:103950006169725F746573742F7468696E672F7024
:10396000726F70657274792F706F7374000000004D
:10397000222C20302C20302C22000000E8400008AF
:1039800073756363657373227D0D0A002DE9F0473B
:1039900091468A460646002423E000BF04EB44001B
:1039A000401CC0B216F8008030444778807800F0A0
:1039B000ADF90E4900F0BEF90546384600F0A6F90B
:1039C0000746404600F0A2F9094900F0B3F939462C
:1039D00000F03AF9294600F037F94AF82400641C4F
:1039E000E4B24C45DAD3BDE8F0870000CDCCCC3D45
:1039F0000000C8422DE9F05F1F4616468B468246FE
:103A0000FFF7E6FC0025234C4FF6FF79A84635E08A
:103A10005046FCF7BDFD82B24B4651461E48FFF7AB
:103A200068F91EA0FCF732FC5046FCF72FFC40461C
:103A3000C4F8008016E06420FEF7D8FA20685946E2
:103A4000643020601F48FCF76DFD50B11EA0FCF7EC
:103A50001DFC1C48FCF70EFCFFF7BAFC0120BDE87A
:103A6000F09F2068B042E6D317A0FCF70FFC154882
:103A7000FCF700FC6D1CEDB2C4F80080BD42C7D35A
:103A800011A0FCF703FC0F48FCF7F4FBFFF7A0FCC8
:103A90000020E4E700000020700000200D0A2A2A20
:103AA0002A2A2A2A2A2A2A2A2A2A2A2A2A73656EAE
:103AB000642A2A2A2A2A2A2A2A2A2A2A2A2A2A2A2C
:103AC0002A0D0A00D80100200D0A2A2A2A2A2A2AA9
:103AD0002A2A2A2A2A2A2A2A2A7265636569766589
:103AE0002A2A2A2A2A2A2A2A2A2A2A2A2A2A2A2A36
:103AF0000D0A00002DE9F05F1E4691468B46824676
:103B00000A9FFFF765FC0025A846214C34E050468B
:103B1000FCF73EFD82B24FF6FF7351461D48FFF79A
:103B2000E8F81DA0FCF7B2FB5046FCF7AFFBC4F869
:103B300000801AE06420FEF759FA20685946643084
:103B400020601F48FCF7EEFC78B149461C48FCF7A2
:103B5000E9FC50B11BA0FCF799FB1948FCF78AFB64
:103B6000FFF736FC0120BDE8F09F2068B042E1D3AA
:103B70006D1CEDB2C4F80080BD42C8D311A0FCF7A3
:103B800085FB0F48FCF776FBFFF722FC0020EAE7F5
:103B900000000020700000200D0A2A2A2A2A2A2A62
:103BA0002A2A2A2A2A2A2A2A2A73656E642A2A2A73
:103BB0002A2A2A2A2A2A2A2A2A2A2A2A2A0D0A00CC
:103BC000D80100200D0A2A2A2A2A2A2A2A2A2A2A41
:103BD0002A2A2A2A2A726563656976652A2A2A2A88
:103BE0002A2A2A2A2A2A2A2A2A2A2A2A0D0A0000C6
:103BF00010B500290AD00878002807D00548784475
:103C0000FDF746FC002801D0002010BD0248784492
:103C100010BD0000EA050000E205000010B5002913
:103C20000AD00878002807D005487844FDF730FC12
:103C3000002801D0002010BD0248784410BD0000CB
:103C4000DA050000D205000090EA010F48BF81F0BC
:103C5000004100F14281421A3CBF801A89184FEAA4
:103C6000D0524FF07F4C1CEA410FA2EBD15318BF4A
:103C70009CEA026F00F03B804FF0004C4CEA0020C1
:103C80004CEA012121FA03FC10EB0C0C1ED202F1CC
:103C9000FF325FEA1C2040EBC25038BF70471CF077
:103CA0007F0F4FEA400C18BFBCF17F4F38BF704701
:103CB000C3F12003994008BF20F00100BCF17F4F01
:103CC00038BF7047A0F1C04000F0FBB84FEA3C009D
:103CD000000A40EBC25028BF1CF0FF0F4FEA400C17
:103CE000E6D018BFBCF17F4F38BF7047EAE79CEAC7
:103CF000026F05D010EA5C0F08BF00F0004070476B
:103D000010B500F098F800BF64FBBE3EB0FA80F337
:103D100010FA03F2C3F19D030AD0D90501EB12207A
:103D2000530638BF704700F1010008BF20F00100C2
:103D3000704700004FF47F0C1CEAD0121EBF1CEA33
:103D4000D11392EA0C0F93EA0C0F00F0478090EA2F
:103D5000010F48BF42F480724FF0004C4CEA002043
:103D60004CEA012102EB0302A0FB0113A2F50002C1
:103D7000002918BF43F001035B0028BF4FEA33035B
:103D800042EB22425FEA132C4CEBC2502EBFBCEB3D
:103D9000436FB2F57C0F70474FEA036CBCF1004FE4
:103DA00008BF20F00100B2F57C0F38BF70470BD57B
:103DB00082F0FF0212F5803FC8BF704700F1C0409B
:103DC000D8BF00F00040704700F5000C5FEA4C0CD3
:103DD00048BF7047B0F1C04000F073B890EA010FDF
:103DE0000CEAD11348BF42F48072624538BF634584
:103DF00004D280EA010000F00040704710B500F0E6
:103E00001AF800BF8900013E00F007B800F009B8B9
:103E10005FEA410C5FEA1C6C08D080EA010000F008
:103E200050B85FEA400C5FEA1C6CF6D14FF00040DE
:103E3000A0F5800070470EF1020E2EF0030E5EF822
:103E4000044B244204D44FEA4102B2F17F4F11D80F
:103E50004FEA4003B3F17F4F0CD80ED14FEAD07C2C
:103E6000B2F17F4F0CEB4C0C0CF1020C08BF4CEB89
:103E7000D17C04E04FF0080C01E04FEAD17C0CEB60
:103E80004C0324FA03F404F00704B4F1040C06D242
:103E90000EEB840CBDE810404CF0010C6047DFE8ED
:103EA0000CF0070802024FF00040A0F5800010BDA2
:103EB0000846420018BFD2F1807288BF00F000406F
:103EC00010BDFF2141EAD050C005704790EA010FB4
:103ED00048BF81F000413FF5BEAE421A04D882F0DF
:103EE0000042A0EB020011444FEAD0524FF07F4C49
:103EF0001CEA410FA2EBD15318BF9CEA026F4AD0D3
:103F00004FF0004C4CEA00204CEA012121FA03FC5E
:103F1000B0EB0C0C0FD412F0FE0F36D05FEA4C0061
:103F20001DD5001240EBC25038BF70471CF03F0F48
:103F300018BF70470BE0A2F101025FEA1C2040EBC2
:103F4000C25038BF70471CF07F0F18BF7047C3F1D5
:103F50002003994014BF401E20F0010070478008E4
:103F60004FEA122308BF7047B0FA80FCA2EB0C02A4
:103F7000CCF1280C60FA0CF093EA122F04BF00EB8E
:103F8000C25070474FEAC3707047130A5FEADC10F3
:103F900008BF7047F6E79CEA026F04D010EA5C0F96
:103FA00008BF0020704710B5FFF745FF40DFF63E21
:103FB00081F000407047FCF78BBEFCF7BFBF0102E9
:103FC00002030405060708090A0B0C0D0E0F10105A
:103FD00000000000000000000102030406070809B9
:103FE00000000000010203040400000800000000BB
:103FF00000000002000100001000000000000000AE
:104000000000000030313233343536373839414220
:10401000434445464030580030313233343536372A
:10402000383961626364656640307800303132331C
:1040300034353637383961626364656678700030CC
:1040400031323334353637383941424344454658A6
:104050005000000002400000000000A0000000002E
:1040600005400000000000C8000000000C400000F7
:104070000000409C00000000194000000020BCBE71
:104080000000000034400000BFC91B8E0000000487
:10409000B5400000504BCFD06607E2CF01000000D2
:1040A0006C4100003E8251AADFEEA73401000000FF
:1040B000D9420000DCB5A0E23A301F97FFFFFFFFB6
:1040C000B4450000FD25A0C8E9A3C14FFFFFFFFFD5
:1040D000FF3F00000000008000000000FF3F0000E4
:1040E00000000080000000007B5C323269645C32BA
:1040F000323A5C32323132335C32322C5C323270E2
:104100006172616D735C32323A7B5C323225735C72
:1041100032323A7B5C323276616C75655C32323AAF
:1041200025647D7D7D220D0A000000003138383382
:104130000000000076657273696F6E3D3230313871
:104140002D31302D3331267265733D70726F647579
:1041500063747325324656587030613348376D4367
:1041600025324664657669636573253246616972F6
:104170005F746573742665743D323232383938396C
:10418000393336266D6574686F643D6D643526730A
:1041900069676E3D253242766857583277735A7791
:1041A0005336483057674B70766E72672533442517
:1041B000334400006D717474732E6865636C6F75A1
:1041C00064732E636F6D000014430008000000202C
:1041D00028000000280100083C43000828000020B7
:1041E00040090000440100081C00000043000000DA
:1041F000F8FFFFFF0C0000000E0000000F000000A1
:104200002E0000001001000043000000F8FFFFFF37
:1042100000404040404040404040414141414140D9
:10422000404040404040404040404040404040408E
:10423000400502020202020202020202020202021D
:104240000220202020202020202020020202020222
:10425000020290909090909010101010101010107A
:104260001010101010101010101010100202020286
:1042700002028888888888880808080808080808CA
:1042800008080808080808080808080802020202C6
:1042900040000000000000000000000000000000DE
:1042A000000000000000000000000000000000000E
:1042B00000000000000000000000000000000000FE
:1042C00000000000000000000000000000000000EE
:1042D00000000000000000000000000000000000DE
:1042E00000000000000000000000000000000000CE
:1042F00000000000000000000000000000000000BE
:1043000000000000000000000000000000000000AD
:104310000000000000000000B44100082C4100082B
:10432000000000000000000001000000100000007C
:0C4330000000000000127A0000000000F5
:04000005080000ED02
:00000001FF
