:020000040800F2
:100000001809002001010008B33B00087532000800
:10001000B13B0008D10B0008B94600080000000001
:10002000000000000000000000000000C3400008C5
:10003000B90E000800000000C1400008C5400008DB
:100040001B0100081B0100081B0100081B01000820
:100050001B0100081B0100081B0100081B01000810
:100060001B0100081B0100081B0100081B01000800
:100070001B0100081B010008E90D00081B01000816
:100080001B0100081B010008390A00081B010008B9
:100090001B0100081B0100081B0100081B010008D0
:1000A0001B010008454100081B0100081B01000856
:1000B000514100085D410008694100081B0100082A
:1000C0001B0100081B0100081B0100081B010008A0
:1000D0001B010008AD4600081B0100081B010008B9
:1000E0001B0100081B0100081B010008DFF80CD0F1
:1000F00000F090FC00480047A155000818090020B6
:100100000648804706480047FEE7FEE7FEE7FEE7B1
:10011000FEE7FEE7FEE7FEE7FEE7FEE741410008F7
:10012000ED000008202A04DB203A21FA02F0002129
:10013000704721FA02F3D040C2F1200291400843F7
:1001400019467047D2B201E000F8012B491EFBD2DC
:1001500070470022F6E710B513460A4604461946D2
:10016000FFF7F0FF204610BDF0B480EA0102D40F83
:100170004200B2EB410F02D20246084611464A0045
:1001800042D0C30DDDB2C1F3C752AD1A202D35DA0E
:10019000C1F3160141F4000204B15242C5F1200638
:1001A00002FA06F12A411044B3EBD05F23D0C4B168
:1001B000012DA0EBC35009DCF0BC4FF0004202EA75
:1001C000C352DBB200F5000000F020BB400000F19C
:1001D000807000EBC350A0F1807040EAD1704900FC
:1001E00009E0490841EAC071A0EBC35000F50000E6
:1001F000400800EBC350F0BC00F0FFBA614201229E
:1002000002EB4101001BF6E7F0BC704781F00041B2
:10021000AAE780F00040A7E780EA010210B502F0EB
:100220000043400022D04A001FD0010E01EB1261B2
:10023000C0F35600C2F3560240F4000042F400023C
:10024000A0FB022000047F39140400D0401C50EAB7
:10025000124001D44000491EC2B20C0604EBD0107B
:10026000401C4008802A02D003E0002010BD20F08E
:100270000100002900DA0020184310BD30B480EAE4
:10028000010202F0004530F0004221F0004013D09E
:1002900090B1C30DD40DC2F31601C0F31600E41AD9
:1002A00041F4000140F400027D34914201D3641C0A
:1002B00000E04900002C02DA30BC002070474FF407
:1002C00000000023914201D3891A034340084FEAFA
:1002D0004101F7D151B1914202D14FF0004105E007
:1002E00002D24FF0010101E06FF0010103EBC450B5
:1002F000284430BC00F081BA420005D0C0F3C75298
:100300005242914201DC0020704700EBC15070471F
:100310002DE9FE4F804681EA0300C00F0C46009095
:1003200021F0004123F00045B8EB0200A94105D2BD
:100330004046214690461C460B46024623F00040AC
:10034000104347D0270DC7F30A00C3F30A510290A8
:10035000401A019040286BDAC3F3130040F4801B6D
:100360000098924620B10023D2EB030A63EB0B0BFB
:1003700001985946C0F14002504600F01DFA064669
:100380000D4650465946019A00F025FA10EB080038
:100390006141002487EA115284EAE7731A4340D08E
:1003A000009A62B3019A012A4FEA075215DC001B3A
:1003B00061EB02014FF0004202EA0752CDE9004230
:1003C000001C41F5801132462B4600F05CFA03B068
:1003D000BDE8F08F40462146F9E7001B61EB0201C2
:1003E000001C41F5801300185B412018A2F500178E
:1003F00047EB030140EAD570B6196D4111E06D0875
:100400004FEA360645EAC0754FEA0752001B61EB1A
:100410000201001C41F5801149084FEA3000001923
:10042000514132462B4603B0BDE8F04F00F01CBAF4
:100430000098012240000023D0EB020263EBE0733E
:10044000009821464FEAE074B8EB000061EB04012C
:10045000E9E783F000435BE781F0004158E72DE9CD
:10046000FE4F81EA030404F0004421F000410094AF
:100470004FF0000B23F0004350EA01045ED052EA33
:1004800003045BD0C3F30A54C1F30A552C44A4F20D
:10049000F3340194A0FB0254C1F3130141F4801121
:1004A000C3F3130343F4801301FB024400FB034E28
:1004B000840A970A44EA815447EA8357A4FB0768F1
:1004C00002958D0A05FB07854FEA932C04FB0C541B
:1004D0002705029D4FEA065847EA1637B5EB08058F
:1004E0006EEB070C870E920E47EA811742EA8312E1
:1004F000A7FB0201B6EB0B0164EB00042B0D43EAF2
:100500000C335E1844EB1C50DA465146E7FB0201FF
:10051000C5F313044FEA0B3343EA14534FEA043292
:10052000019C43EA0603A4F10C040294009CCDE96B
:1005300000B400F0A8F903B0BDE8F08F0020014638
:10054000F9E72DE9F04D81EA030404F0004B21F0B6
:10055000004514464FF0000A23F0004150EA05021E
:1005600020D054EA01021DD0C5F30A570246C5F354
:100570001303C1F31300C1F30A5640F4801543F48A
:100580008013A7EB0608101BD64608F2FD3873EB64
:10059000050002D308F1010801E092185B41B8F1AF
:1005A000000F03DA00200146BDE8F08D00204FF473
:1005B0008011064684460EE0171B73EB050705D332
:1005C000121B63EB050306434CEA010C49084FEA92
:1005D000300092185B4150EA0107EDD152EA030066
:1005E00012D082EA040083EA0501084305D0101BFB
:1005F000AB4106D20122002306E000224FF0004367
:1006000002E06FF0010253101AEB06004CEB0851A8
:1006100010EB0A0041EB0B01BDE8F04D00F024B9EE
:1006200070B521F0004303430CD0C1F30A550024F8
:10063000D5EB040564EB0403D617AD1AB34102DB16
:100640000020014670BD201841EB025170BD962379
:100650000022114600F0DAB80EB540F233410291A3
:100660000021CDE900110A460B4600F00CF903B059
:1006700000BD20F00040C10DC0F3160040F40000A2
:100680007F2901DA00207047962903DCC1F1960129
:10069000C8407047963988407047C1F30A5210B578
:1006A000C1F3130140F2FF3341F480119A4201DAA1
:1006B000002010BD40F233439A42A2F2334203DCE1
:1006C0005242FFF72FFD10BD904010BD00F00042D8
:1006D00030F000400AD0C10D01F56071C0F3160082
:1006E00042EA0151C2084007114370470020014609
:1006F000704701F0004330B421F0004150EA01029C
:1007000006D00A0DA2F56072C1F31301002A02DCC3
:1007100030BC00207047440F44EAC104C100E01817
:1007200030BC00EBC25000F068B830B50B46014653
:1007300000202022012409E021FA02F59D4205D380
:1007400003FA02F5491B04FA02F52844151EA2F12A
:100750000102F1DC30BD2DE9F05F05460020924634
:100760009B4688460646814640241BE02846414673
:1007700047462246FFF7D6FC53465A46C01A9141D7
:1007800010D311461846224600F016F82D1A67EBD2
:1007900001084F4622460120002100F00DF817EB1A
:1007A00000094E41201EA4F10104DFDC4846314619
:1007B0002A464346BDE8F09F202A04DB203A00FA8F
:1007C00002F1002070479140C2F1200320FA03F3A8
:1007D000194390407047202A06DBCB17203A41FA94
:1007E00002F043EAE07306E041FA02F3D040C2F1BE
:1007F000200291400843194670470029A8BF70475E
:10080000401C490008BF20F00100704710B4B0FA46
:1008100080FC00FA0CF050EA010404BF10BC7047E1
:1008200049B1CCF1200421FA04F411FA0CF118BFFB
:10083000012121430843A3EB0C01CB1D4FEA0061CA
:100840004FEA102042BF002010BC704700EBC3509D
:1008500010440029A4BF10BC7047401C490008BFC9
:1008600020F0010010BC704710B5141E73F1000495
:1008700008DA401C41F1000192185B411A4301D192
:1008800020F0010010BD2DE9F04D92469B4611B1BC
:10089000B1FA81F202E0B0FA80F220329046FFF71E
:1008A0008BFF04460F4640EA0A0041EA0B0153461B
:1008B0005A46084313D0114653EA010019D0C8F133
:1008C00040025046FFF72EFC05460E46504659465C
:1008D0004246FFF771FF084305D0012004E020469F
:1008E0003946BDE8F08D0020054346EAE0762C430A
:1008F00037430A986305E40AA0EB08000022FD0ACA
:1009000044EA47540A3002D500200146E9E70105D0
:1009100010196941DDE9084500196941BDE8F04D4C
:10092000A2E70EB5C10F80EAE0700844CA070021B3
:1009300040F233438DE80E000A460B46FFF7A3FF53
:1009400003B000BD70B5C1F30A5201F000450024A8
:10095000C1F3130140F2FF3341F480119A4201DAEE
:10096000002070BD40F233439A42A2F2334203DCCE
:100970005242FFF7D7FB00E090402C43F1D04042B9
:1009800070BDC1F30A52C1F3130140F2FF3341F4C9
:1009900080119A4202DA00200146704740F2334348
:1009A0009A42A2F2334202DC5242FFF7BBBBFFF78E
:1009B00003BF000030B5041E71F1000404DB4FF0EA
:1009C0000044404264EB0101141E73F1000405DB96
:1009D0001C464FF00043524263EB04038B4208BFB6
:1009E000824230BD30B5041E71F1000404DB4FF0CB
:1009F0000044404264EB0101141E73F1000405DB66
:100A00001C464FF00043524263EB0403994208BF77
:100A1000904230BD064C074D06E0E06840F001030F
:100A200094E8070098471034AC42F6D3FFF762FB16
:100A3000F85C0008185D000810B5044800F0D4FA0E
:100A4000BDE81040024800F0CFBA0000D0000020FE
:100A50000001002070B5044600688168C943C907D9
:100A600017D1816821F00101816000F099FF0546EE
:100A70000AE000BF00F094FF401B022804D9206860
:100A80008068C043C00706D020688068C043C007A4
:100A9000F0D0002070BDA06A40F01000A062E06AB3
:100AA00040F00100E062012070BD0000F8B50026B2
:100AB0000446009600688168C943C9072DD0816843
:100AC00041F001018160164816490068B0FBF1F061
:100AD00000E0401E00900028FBD100F061FF0546B9
:100AE00016E000BF00F05CFF401B022810D9206810
:100AF0008068C043C0070BD0A06A40F01000A0621D
:100B0000E06A40F00100E06284F824600120F8BD52
:100B100020688068C043C007E4D10020F8BD000011
:100B20000C00002040420F0070B5164C164DA07806
:100B300058B90021012000F039F80021102000F000
:100B400035F80120A070286860632868616B401A3E
:100B5000B42816D300200B496063A07002220C3128
:100B600000F016F807480C304178007801EB0020BF
:100B7000FFF76DFD0549FFF781FBE062FFF779FDA7
:100B8000206370BD8C000020080000209A99993FD6
:100B90000EB54FF47A738DE80E000246012346210C
:100BA000014800F0C7FF0EBD3001002003B583B03F
:100BB0004FF47A73012204A98DE80E001346024611
:100BC0004621024801F0E4F805B000BD30010020E4
:100BD000FEE7000070B5164E00240D203071154D53
:100BE00004E0641CE4B2012004F0D8FA2021284675
:100BF00000F0C4FE012803D0642C14D2002407E0C6
:100C0000642CEED30FE0641CE4B2012004F0C6FAB9
:100C10002021284600F0B2FE08B9642CF3D301204D
:100C20007071642C01D3012070BD002070BD0000E4
:100C30008C000020000801407FB51648017801298A
:100C400027D10024047000F03BF9134D012220212C
:100C5000284600F0A0FE012004F0A0FA0022202186
:100C6000284600F098FE142000F086FD0122202185
:100C7000284600F090FE1E2004F090FA2020CDE9D6
:100C8000000401200290032003906946284600F0EA
:100C900085FD7FBD8C000020000801402DE9F04754
:100CA000274D002028602871FFF7C6FFFFF792FF4D
:100CB0000126A5F1380410B12670BDE8F0870027A1
:100CC00000F044F8E8557F1CFFB2052FF8D300F080
:100CD000F7F8012220211B4800F05DFE062060711C
:100CE0002978687888460A18A978EF7889463944BF
:100CF00011442A7991421FD1FFF7A9FCDFF848A0DF
:100D00005146FFF7BBFA05464046FFF7A0FC2946CF
:100D1000FFF72AFAE0613846FFF799FC5146FFF7E2
:100D2000ADFA05464846FFF792FC2946FFF71CFA44
:100D300020622670082001E0267007206071BCE761
:100D4000C400002000080140000020412DE9F041CE
:100D5000234C0025234FA571E5712E464FF0030863
:100D6000A56184F8058004E0401CA061012004F026
:100D700015FA2021384600F001FE012802D1A069B1
:100D80003228F1D3A56104E0401CA061012004F0E9
:100D900005FA2021384600F0F1FD10B9A06932288B
:100DA000F2D3282004F0FAF904206071202138469B
:100DB00000F0E4FD012810D0002105206071A07929
:100DC000761C41EA4000A071E079F6B2401CE07167
:100DD000082EC5D3A079BDE8F0810121EDE7000020
:100DE0008C00002000080140014800F0B5BB000065
:100DF000EC02002030B590F840500124AC40C56BA7
:100E00006C60046863604368102B036803D09960CA
:100E10000068C26030BD9A600068C16030BD0000EB
:100E20002DE9F0411B4E1C4801F066FD1B4C207A59
:100E300000282CD000202072606AFFF708FC1849B7
:100E4000FFF7EAF90121FFF757FA1649FFF716FAFB
:100E5000154F0025B8420DDB1449FFF7DDF939467F
:100E6000FFF7D4F91249FFF7D7F9054610F1FF4F04
:100E700000D300250F49A06AFFF7CEF90746314697
:100E80002846FFF7C9F93946FFF76EF9A062BDE8B9
:100E9000F0810000CDCC4C3ECC0100208C00002025
:100EA0003333534000F07F45CDCCCC3D7B142E3EF8
:100EB00000007A44CDCC4C3F704772B6FEE700008C
:100EC0001FB5202000900120019002900320039084
:100ED0006946024800F062FC1FBD000000080140A6
:100EE00070470000F8B50024009490F824202546AF
:100EF000012A12D0012280F824204A681F23072AE1
:100F00000DD20668776B521E02EB820293409F431C
:100F10000B6893401F43776319E00220F8BD066811
:100F20000D2A0AD2376BD21F02EB820293409F43F5
:100F30000B6893401F43376309E0F76A0D3A02EBF1
:100F4000820293409F430B6893401F43F7620A68F5
:100F5000072306680A2A0AD3F7680A3A02EB420214
:100F600093409F438B6893401F43F76008E03769C5
:100F700002EB420293409F438B6893401F433761CB
:100F80000A68102A01D0112A20D1124B02689A4215
:100F900017D193681B0219D4936843F4000393603C
:100FA0000968102912D10C490C4A0968B1FBF2F109
:100FB00001EB8101490000E0491E00910029FBD1AD
:100FC00004E0816A41F020018162012480F824500C
:100FD0002046F8BD002401400C00002040420F00D4
:100FE00070470068C06C704770B5044600680668BA
:100FF0004568A90625D5B10723D5A16AC90603D43A
:10100000A16A41F40071A1628168C1F342410729DC
:1010100010D1217B71B9416821F020014160A06AA3
:1010200020F48070A062A06AC00403D4A06A40F0DB
:101030000100A0622046FFF7D3FF21686FF0120085
:10104000086028062ED570072CD5A06AC00603D4E8
:10105000A06A40F40050A06220688168C1F30231A8
:10106000072909D04168490515D48168C1F3424177
:10107000072910D1217B71B9416821F080014160BD
:10108000A06A20F48050A062A06AC00503D4A06AC0
:1010900040F00100A0622046FFF722FF21686FF0B8
:1010A0000C00086068060CD5F0070AD0A06A40F46E
:1010B0008030A062204600F093F821686FF00100B4
:1010C000086070BD2DE9F0414FF0000704003D4677
:1010D0007ED0A06A002628B9E66284F82460204603
:1010E00000F080F82046FFF7B5FCA16AC90600D4DD
:1010F00020B1A06A40F01000A06269E0A16A21F46A
:10110000885141F00201A1626268E169237B0A43D0
:1011100047EA43010A43A1684FF48077B94209D0F6
:10112000012907D05FF0000194F814C0BCF1010F51
:1011300002D00AE03946F7E7F3B1A36A43F020038F
:10114000A362E36A43F00103E3622368D3F804C0B7
:101150002CF4694C4CEA010CC3F804C021688B687C
:10116000DFF870C003EA0C0313438B60A168B94237
:101170000BD0012909D00CE0DFF85CC0A3690CEBAF
:1011800043330B4343F40061DFE7218A0D05A5F5E6
:1011900080152168CB6A23F470032B43CB6221684E
:1011A00089680E4B1940914208D1E662A16A21F08C
:1011B000020141F00101A162BDE8F081A06A20F0C6
:1011C000020040F01000A062E06A40F00100E0621E
:1011D0000120F1E7FDF7E1FF00E0FFFFFE0E1FFF3A
:1011E0007047000010B586B0002100910191029176
:1011F00003911E4C03681E4903221E48A34211D1CD
:101200008B6943F400738B618B6903F4007304935F
:101210008B6943F004038B61896901F00401049137
:10122000102113E0144CA3421DD18B6943F4806359
:101230008B618B6903F4806304938B6943F004032F
:101240008B61896901F0040104911421CDE9001238
:10125000694600F0A3FA00220121122000F0C4FE2A
:10126000122000F0B3FE06B010BD000000240140C3
:101270000010024000080140002801402DE9F84319
:1012800000270D460446009700F08AFB8046206840
:101290008168C90508D5A06A40F02000A06284F8E2
:1012A00024700120BDE8F8834168C90503D4C06AF1
:1012B00010F4700F2AD0022000F0C8FE3B490968E4
:1012C000B1FBF0F62068036939490B424FEA61012E
:1012D0004FEAA1121FD1C3684FEA611C13EA0C0F39
:1012E00019D103690B4225D1C068104222D11420C4
:1012F00023E0681C0AD02DB100F052FBA0EB0800DF
:10130000A84203D920680068800725D520680068B6
:101310008007EED52DE003690B4202D1C16811426E
:1013200006D0026923490A4206D1C068084203D1A7
:10133000542002E0292000E0FC204643009816E0FB
:10134000681C11D02DB100F02BFBA0EB0800A842C7
:101350000AD90098B04207D2A06A40F00400A06207
:1013600084F8247003209DE70098401C0090B04250
:10137000E6D321686FF012000860A06A40F40070A4
:10138000A06220688068C0F3424007280CD1207B0F
:1013900050B9A06A20F48070A062A06AC00403D48F
:1013A000A06A40F00100A06200207BE70C00002052
:1013B000244992244992240070B5044690F82400F0
:1013C00001280DD0012084F824002046FFF76EFB91
:1013D00002004FF0000005D084F82400104670BDD4
:1013E000022070BDA16A40F20123994341F480714B
:1013F000A1621F4D23681F49AB4218D10E6816F435
:10140000702F14D0A66A46F48016A6620E68760580
:1014100005D5A66A26F4005646F48056A662A66A4A
:10142000F6040AD5E66A26F00606E66206E0A66A33
:1014300026F48016A6625E68E9E7E06284F824007C
:101440006FF00200186020688368C3F34243072BE3
:1014500005D1A84208D1096811F4702F04D0816821
:1014600041F480118160B9E7816841F4A001F9E796
:10147000002801400424014010B590F821100022FA
:10148000022905D00421816380F82020012010BDAD
:1014900001680B6823F00E030B6001680B6823F0F2
:1014A00001030B6090F84030C46B012101FA03F393
:1014B000636080F8211080F82020104610BD0000E5
:1014C00010B590F821100024022903D00421816373
:1014D00001243DE001680A6822F00E020A600168FA
:1014E0000A6822F001020A601A4A0168914201D199
:1014F000012121E0174A1432914201D110211BE051
:10150000144A2832914201D1891515E0114A3C3222
:10151000914201D189140FE00E4A5032914202D11A
:101520004FF4803108E00B4A6432914202D14FF40B
:10153000801101E04FF08071064A083A51600121A4
:1015400080F82110002180F82010416B01B18847FC
:10155000204610BD080002402DE9F05FC16B0C6809
:1015600001680B68D0F840C0042202FA0CF2494D21
:10157000DFF824A1494E4A4FDFF828B1DFF828E10F
:1015800022422CD05A072AD50A68920603D40A6848
:1015900022F004020A600168A94201D1042219E084
:1015A000514501D1402215E0B14202D14FF4806291
:1015B00010E0B94202D14FF480420BE0594502D10C
:1015C0004FF4802206E0714502D14FF4800201E021
:1015D0004FF080622F4908394A60C16A3BE04FF002
:1015E000020808FA0CF818EA040F4FF000094FF04F
:1015F000010235D05FEA837832D50B689B0605D4AB
:101600000B6823F00A030B6080F821200168A942CF
:1016100001D1022219E0514501D1202215E0B14249
:1016200002D14FF4007210E0B94202D14FF40052DF
:101630000BE0594502D14FF4003206E0714502D16A
:101640004FF4001201E04FF00072124908394A606D
:1016500080F82090816A00291AD0BDE8F05F084721
:10166000082505FA0CF5254212D01B0710D50B688A
:1016700023F00E030B6090F84010C36B02FA01F1E7
:101680005960826380F8212080F82090016BE2E7A6
:10169000BDE8F09F080002401C00024030000240FC
:1016A00044000240580002406C00024030B528B3AC
:1016B00008C8134914221944B1FBF2F18900C1632F
:1016C00010498163022141771A6843F6F0718A4319
:1016D000D0E900142143D0E902452C432143046999
:1016E0002143446921438469214311431960002146
:1016F0004163012242770177084630BD012030BDA9
:10170000F8FFFDBF0000024070B5044690F82000CD
:10171000002501280CD0012084F8200094F82160D5
:101720000020012E06D084F820000225284670BD36
:10173000022070BD022684F82160A063206806683C
:1017400026F0010606602046FFF754FBE06A0028F9
:101750002068016802D041F00E0106E021F004018A
:1017600001602068016841F00A0101602068016899
:1017700041F001010160D9E770B5044600F010F9AD
:101780000546601C02D004480078044400F008F9C3
:10179000401BA042FAD370BD000000202DE9F84F95
:1017A000DFF8B8910024A9F1040B23460F2709F1B3
:1017B000040AABF1040EC9E00125A5402A40AA4263
:1017C0007DD1674ED1F804C0ACEB0608B44532D0E9
:1017D00014DCBCF1030F3AD009DCBCF1000F2AD0B5
:1017E000BCF1010F1CD0BCF1020F31D11DE0BCF1E6
:1017F000110F17D0BCF1120F2AD119E0B8F5881FCC
:1018000019D006DCB8F5803F15D0B8F5801F1FD180
:1018100011E0B8F5001F0ED0B8F5041F18D10AE08A
:10182000CB6815E0CB681B1D12E0CB6808330FE0D6
:10183000CB680C330CE08B682BB1012B4FF0080305
:1018400003D0456104E0042302E0056100E00023C9
:10185000FF2A01D8064601E000F104064FEA84059C
:1018600001D9A5F12005D6F8008007FA05FC28EA81
:101870000C0803FA05F548EA0508C6F800804D682B
:10188000ED0062D5374DAE6946F00106AE61AD6937
:1018900024F0030605F001050095334D06EB050C19
:1018A000DCF80850A607360F07FA06F825EA0805FF
:1018B000DFF8B880404503D14FF0000817E044E05E
:1018C000DFF8AC80404502D14FF001080FE0DFF8AF
:1018D000A480404502D14FF0020808E0DFF898806C
:1018E000404502D14FF0030801E04FF0040808FA28
:1018F00006F848EA0508CCF808804D68D9F8006079
:10190000ED024D4601D5164300E096432E604D682A
:10191000DAF80060AD02554601D5164300E0964363
:101920002E604D68DBF80060AD035D4601D51643BF
:1019300000E096432E604D68DEF80060ED037546CA
:1019400001D5164300E096432E60641C0D682A46BC
:10195000E5407FF431AFBDE8F88F00000804014096
:10196000000011100010024000000140000801407A
:10197000000C014000100140001401408068084044
:1019800000D001207047C26821EA02030A4043EAFE
:101990000241016170470AB1016170470904FBE728
:1019A00001488068704700000000002070B5040006
:1019B00025D094F83D00002520B984F83C502046FD
:1019C00000F07EFA242084F83D002068016821F0B0
:1019D000010101602068016841F400410160206854
:1019E000016821F40041016000F08EFC4D4A6168FD
:1019F000914201D84C4900E04C49884201D2012073
:101A000070BD4B492368B0FBF1F15E6826F03F06DC
:101A10000E435E606368934206D94FF49673594350
:101A20004FF47A73B1FBF3F12368491C1E6A26F068
:101A30003F06314319626168914210D84900401E47
:101A4000B0FBF1F2521CC2F30B02042A01D20420B3
:101A500022E0B0FBF1F0401CC0F30B001CE0A268D8
:101A6000F2B301EBC10303EB0116431EB3FBF6F324
:101A70005B1C43F480431B0549D092B301EBC102C8
:101A800002EB0111401EB0FBF1F0401CC0F30B0053
:101A900040F4804040F400402168CA694CF6FF736E
:101AA0009A431043C861D4E90710014320680268D3
:101AB00022F0C00211430160D4E903010143206810
:101AC000826848F2FF339A4311438160D4E90501EB
:101AD00008432168CA6822F0FF021043C86001E091
:101AE0000EE016E02068016841F001010160256404
:101AF000202084F83D00256384F83E50002070BD0E
:101B000001EB4106431EB3FBF6F35B1CB3E7012078
:101B1000C2E701EB4101401EB0FBF1F0401CC0F3F5
:101B20000B00B7E7A086010080841E0000093D007D
:101B300040420F002DE9FF4F83B00025DDE9107909
:101B40009A4693460446DDF848800095FFF728FF43
:101B5000064694F83D0020287CD1192301228849AB
:101B60002046009601F09CFC0028F5D194F83C003A
:101B700001286FD0012084F83C0020680168C90763
:101B800003D1016841F0010101602068016821F47E
:101B900000610160222084F83D00402084F83E006E
:101BA00025646762A4F82A90608D20857548E062FC
:101BB000CDE9008653465A462046049901F072FB4F
:101BC00000287CD1208DDFF8C091202768B1012842
:101BD00014D00228206801681ED041F480610160A1
:101BE0002068416980690090BCE020684169816992
:101BF0000091016841F400710160B3E02068016860
:101C000021F48061016072B62068416981690091A8
:101C1000016841F400710AE041F40061016072B6AC
:101C20002068416981690091016821F48061016047
:101C300062B697E0032865D801280CD002284346F5
:101C40004FF000024946204600960BD001F028FCD8
:101C5000A8BB0CE091E032464146204601F0C6FCAC
:101C600068BB72E001F01CFC48BB72B633E0206830
:101C7000016821F48061016072B620680069616AC0
:101C80000870606A401C6062208D401E2085608D57
:101C9000401E60853D4846F2A8110068B0FBF1F097
:101CA000C0EBC00000EB80000090401E009007D009
:101CB00020684069C04340070DD50098F5E727E04C
:101CC00044F8305F6773A573206940F020002061FD
:101CD00062B625731CE02068016841F40071016060
:101CE00020680069616A0870606A401C6062218D2A
:101CF000491E2185618D491E618562B62168096989
:101D0000017026E032464146204601F06FFC18B1D2
:101D1000012007B0BDE8F08F20680069616A087093
:101D2000606A401C6062208D401E81B22185608DFA
:101D3000401E608520684269D243520712D40329AD
:101D400003D1016821F48061016020680069616A43
:101D50000870606A401C6062208D401E2085608D86
:101D6000401E6085208D00287FF464AF84F83D70AC
:101D700084F83E5084F83C50CBE70220C9E70000CD
:101D8000020010000000FFFF040001000C00002012
:101D90002DE9FF4F83B09A46DDE91197934604463B
:101DA000DDF84080FFF7FCFD054694F83D00202853
:101DB0007FD11923012240492046009501F070FB94
:101DC000002876D194F83C00012872D0012084F8D4
:101DD0003C0020680168C90703D1016841F0010196
:101DE00001602068016821F400610160212084F80D
:101DF0003D00402084F83E0000262664C4F824807C
:101E0000A4F82A90608D20852C48E062CDE9007509
:101E100053465A462046049901F0C2FA70B930E0A0
:101E20002A463946204601F019FC58B1206C042896
:101E300004D12068016841F400710160012007B0FD
:101E4000BDE8F08F606A216800780861606A401C14
:101E50006062218D491E89B22185628D521E628584
:101E600022685369DB435B070BD469B100781061CA
:101E7000606A401C6062208D401E2085608D401E7F
:101E80006085208D0028CBD12A463946204601F0B6
:101E9000DBFA0028CAD154F83D0B016841F4007107
:101EA0000160202004F81E09E67766770020C6E767
:101EB000FFE70220C3E70000020010000000FFFF60
:101EC00010B586B000210091019102910391006844
:101ED0000F4988421AD10F4CA06940F00800A06158
:101EE000A069694600F008000490C020009012200C
:101EF0000190032003900848FFF750FCE06940F48C
:101F00000010E061E06900F40010049006B010BD1C
:101F10000054004000100240000C0140024881685B
:101F2000027811448160704700000020074810B516
:101F3000016841F010010160032000F075F80220F3
:101F400000F006F800F024F8002010BD0020024048
:101F500070B50D4D04464FF47A712878B1FBF0F05E
:101F60000A490968B1FBF0F000F0A4FB48B9102C55
:101F700007D200222146501E00F036F800206C6087
:101F800070BD012070BD0000000000200C0000208A
:101F90000C4808B5816941F001018161816901F056
:101FA00001010091C16941F08051C161C06900F037
:101FB000805000900448416821F0E06141F00071D8
:101FC000416008BD0010024000000140002809DB0C
:101FD00000F01F02012191404009800000F1E02043
:101FE000C0F8001170470000F0B40E4B1B680C469F
:101FF000C3F30223C3F10705042D00D90425191DDD
:10200000072901D2002300E0DB1E012606FA05F1B4
:10201000491E214099409E40761E16403143F0BC37
:1020200002F0D0BB0CED00E0064900F007020868A2
:102030004FF6FF03184040EA0220034A10430860AD
:10204000704700000CED00E00000FA0510B50146F5
:102050000020234C012922D0022939D010291DD17A
:1020600061682268D20119D51E48C1F38342C903B1
:10207000805C0AD561681B4AC1F34041921E515CE5
:10208000194AB2FBF1F1484301E01849484361683D
:10209000490203D440000321B0FBF1F010BD226AD5
:1020A000C2F30121012903D1920701D5C80310BD54
:1020B000022905D1626A920702D549F6404010BD57
:1020C0000329FCD121688903F9D54FF2244010BDC2
:1020D00000F02AF96168C1F38131491C4900DBE74E
:1020E000001002408456000800127A0000093D00EA
:1020F0002DE9F84305460078354CC00754D0E06917
:102100000026C00008D4E06940F08050E061E0693A
:10211000012600F0805000902E480168C90512D4B5
:102120000168804641F480710160FFF739FC074681
:1021300005E000BFFFF734FCC01B642823D8D8F8A3
:102140000000C005F6D5206A10F4407021D0A9889F
:1021500001F4407181421CD0206A1F49012220F401
:1021600040700A6000220A602062C00711D0FFF7A9
:1021700017FC074641F2883808E000BFFFF710FC63
:10218000C11B414502D90320BDE8F883206A8007BE
:10219000F4D5206A696820F44070084320621EB1BB
:1021A000E06920F08050E0612878800705D56068FC
:1021B000A96820F44040084360602878C00605D52F
:1021C0006068E96820F48000084360600020DBE775
:1021D0000010024000700040400442422DE9F047E8
:1021E0000F46050061D0434E306800F00700B8424A
:1021F00009D2306820F0070038433060306800F0C2
:102200000700B84251D128683B4C810712D54007DE
:1022100003D5606840F4E06060602878000703D56B
:10222000606840F4605060606068A96820F0F00069
:10223000084360602878C00728D06868012810D05B
:102240002168022810D0890700292EDA616821F060
:10225000030101436160FFF7A3FB804641F2883927
:102260000DE021688903EFE78901EDE7FFF798FBAF
:10227000A0EB0801494502D90320BDE8F08760685A
:10228000696800F00C00B0EB810FEFD1306800F00E
:102290000700B8420BD9306820F00700384330609F
:1022A000306800F00700B84201D00120E5E7287847
:1022B000400705D56068E96820F4E0600843606085
:1022C0002878000706D56068296920F4605040EA44
:1022D000C100606000F038F86168084AC1F303117A
:1022E000515CC8400649086006480068FFF730FEA8
:1022F0000020C2E70020024000100240945600086F
:102300000C000020040000200448054900684968CA
:10231000044AC1F30221515CC84070470C00002000
:1023200000100240A45600080448054900684968A6
:10233000044AC1F3C221515CC84070470C00002020
:1023400000100240A45600080E4A51680E4801F0E1
:102350000C03042B11D0082B0FD10C48C1F383437D
:10236000C903C05C0AD55168084AC1F34041921EB6
:10237000515C054A5043B0FBF1F0704704494843B3
:10238000704700000010024000127A0072560008E8
:1023900000093D002DE9F84F040070D02078C04DB1
:1023A000C00749D06868C0F38100012807D0686879
:1023B000C0F38100022809D16868C00306D52868E7
:1023C000800339D560680028E7D035E06068B0F553
:1023D000803F0BD010B1B0F5A02F11D0286820F4A9
:1023E00080302860286820F4802002E0286840F4CB
:1023F00080302860606890B1FFF7D2FA06460AE0A4
:10240000286840F480202860F0E700BFFFF7C8FA92
:10241000801B642873D828688003F7D50CE0FFF789
:10242000BFFA064605E000BFFFF7BAFA801B642832
:10243000F0D828688003F7D420789A4E80074FF0B0
:1024400001094FF0000839D5686810F00C0F07D06B
:102450006868C0F38100022809D16868C00306D407
:102460002868800714D52069012808D110E0206968
:10247000B0B1C6F80090FFF793FA074605E00AE10D
:10248000FFF78EFAC01B0228C4D828688007F7D54A
:102490002868616920F0F80040EAC10028600DE07A
:1024A000C6F80080FFF77CFA074604E0FFF778FAE9
:1024B000C01B022823D828688007F7D4207800079B
:1024C0002CD57948A169D9B1C0F80090FFF768FA16
:1024D000074604E0FFF764FAC01B02280FD8686AB9
:1024E0008007F7D571484FF4FA510068B0FBF1F05E
:1024F000009000BF0098411E0091FAD20EE080E0EB
:10250000C0F80080FFF74CFA074604E0FFF748FAEE
:10251000C01B022875D8686A8007F7D42078400766
:1025200060D5E8690027C00008D4E86940F0805011
:10253000E861E869012700F0805000905C4801687C
:10254000C90513D40168834641F480710160FFF727
:1025500027FA824606E000BFFFF722FAA0EB0A0046
:1025600064284ED8DBF80000C005F5D5E0680128E6
:102570000AD008B1052813D0286A20F0010028628B
:10258000286A20F0040002E0286A40F00100286276
:10259000E06841F2883B98B1FFF702FA82460BE00F
:1025A000286A40F004002862EEE700BFFFF7F8F960
:1025B000A0EB0A0159455AD8286A8007F6D50CE0E5
:1025C000FFF7EEF9824605E0FFF7EAF9A0EB0A0112
:1025D00059454CD8286A8007F6D41FB1E86920F025
:1025E0008050E861E06988B36968C1F3810102291C
:1025F00044D00228C6F8608004D0FFF7D1F9044621
:1026000038E034E0FFF7CCF9074604E0FFF7C8F9FB
:10261000C01B02282BD828688001F7D4206AB0F5A7
:10262000803F05D16868A16820F4003008436860E5
:10263000D4E908010843696821F47411084368600B
:10264000C6F86090FFF7ACF9044606E025E000BF4D
:10265000FFF7A6F9001B022809D828688001F7D5E2
:102660001BE000BFFFF79CF9001B022802D90320E2
:10267000BDE8F88F28688001F4D40EE00128F7D077
:102680006868226A00F48031914204D1616A00F4E2
:102690007010884201D00120EAE70020E8E700003E
:1026A0000010024000004242800442420C00002020
:1026B0000070004010B5401EB0F1807F01D30120B2
:1026C00010BD4FF0E02460610F21601702F07AF82E
:1026D0000020A06107202061002010BD70477047D6
:1026E00010B590F83C20012A22D0012280F83C202D
:1026F000CA688C6822F4407222434C6822F48062DB
:1027000022430C6822F4006222430C6922F48052B6
:1027100022434C6922F400522243C969002322F467
:1027200080420A4301684A6480F83C30002010BDB2
:10273000022010BD70B590F83C20012A26D001245B
:1027400080F83C40022280F83D2003685A689D686A
:1027500022F070060A6832435A600D4B02689A42B2
:1027600008D0B2F1804F05D00A4B9A4202D00A4BF2
:102770009A4204D1496825F080031943916080F89A
:102780003D40002180F83C10084670BD022070BD1D
:10279000002C0140000400400008004010B5040077
:1027A00003D094F83D0010B107E0012010BD0020D7
:1027B00084F83C00204600F01FF8022084F83D0019
:1027C000211D206801F0D6FC012084F8460084F821
:1027D0003E0084F83F0084F8400084F8410084F80B
:1027E000420084F8430084F8440084F8450084F8EB
:1027F0003D00002010BD000008B5274A01682748A9
:1028000091420ED1816941F40061816180690022A9
:1028100000F40060009011461920FFF7E5FB192035
:1028200034E0B1F1804F11D01D4A91421DD1C169F0
:1028300041F00201C161C069002200F00200009075
:1028400011461D20FFF7D0FB1D201FE0C16941F09C
:102850000101C161C069002200F001000090114631
:102860001C20FFF7C1FB1C2010E00E4A914211D141
:10287000C16941F00401C161C069002200F0040097
:10288000009011461E20FFF7AFFB1E20BDE8084058
:10289000FFF79CBB08BD0000002C01400010024067
:1028A000000400400008004090F83D10012901D0CC
:1028B00001207047022180F83D1000680B498842D2
:1028C00008D0B0F1804F05D00949884202D00949AB
:1028D000884204D1816801F00701062903D001680C
:1028E00041F001010160002070470000002C014010
:1028F000000400400008004090F83D10012901D07C
:1029000001207047022180F83D100168CA6842F03A
:102910000102CA6000680B49884208D0B0F1804FBC
:1029200005D00949884202D00849884204D181680B
:1029300001F00701062903D0016841F0010101609F
:1029400000207047002C01400004004000080040B7
:1029500001680A6A41F211131A4207D10A6A9B10F0
:102960001A4203D10A6822F001020A60012180F8AC
:102970003D10002070470168CA6822F00102CA6059
:1029800001680A6A41F211131A4207D10A6A9B10C0
:102990001A4203D10A6822F001020A60012180F87C
:1029A0003D100020704770B5044690F83C000025AB
:1029B000012817D0012684F83C60022084F83D00ED
:1029C0002068826822F0770222F47F4282600868E1
:1029D000502838D00DDC20284FD005DC90B31028CB
:1029E00011D14AE0022070BD302846D040280AD1DB
:1029F0003BE060282FD070280DD0B0F5805F03D069
:102A0000B0F5005F12D0012584F83D60002084F805
:102A10003C00284670BDCB68D1E90121206801F057
:102A2000F2FB2068816841F0770109E0CB68D1E9C9
:102A30000121206801F0E7FB2068816841F48041B2
:102A40008160E1E719E0CA684968206801F090FCFC
:102A50005021206806E0CA684968206801F099FCA6
:102A60006021206801F0D9FBCEE7CA684968206878
:102A700001F07EFC40212068F4E722680146104600
:102A8000F0E770472DE9F04104460068C668056923
:102A90004FF00007A90713D5B10711D5F91E016141
:102AA00001202077206880698007204602D0FFF748
:102AB000E8FF04E000F0A4F8204600F036F927779C
:102AC000680716D5700714D521686FF004000861F7
:102AD000022020772068806910F4407F204602D0D1
:102AE000FFF7CFFF04E000F08BF8204600F01DF95F
:102AF0002777280715D5300713D521686FF0080010
:102B00000861042020772068C0698007204602D031
:102B1000FFF7B7FF04E000F073F8204600F005F976
:102B20002777E80616D5F00614D521686FF0100057
:102B30000861082020772068C06910F4407F204693
:102B400002D0FFF79EFF04E000F05AF8204600F0A4
:102B5000ECF82777E80708D0F00706D021686FF077
:102B600001000861204600F02FF9280608D530063C
:102B700006D521686FF0800008612046FFF7AEFDA2
:102B8000680608D5700606D521686FF04000086118
:102B9000204600F06BF9A8060AD5B00608D52168D2
:102BA0006FF0200008612046BDE8F041FFF797BDB7
:102BB000BDE8F08100B585B000210091019102913E
:102BC000039100680B49884212D10B48816941F09A
:102BD000040181618069694600F0040004904FF4AB
:102BE000006000900220019003900448FEF7D6FD9B
:102BF00005B000BD002C014000100240000801405B
:102C0000704770B5044690F83C0000260D46012838
:102C10000FD0012084F83C006AB1042A1DD0082A94
:102C20002FD00C2A3FD00126002084F83C003046EB
:102C300070BD022070BD206801F0F8FA206881693B
:102C400041F0080181612068816921F004018161FE
:102C5000206881692A69114311E0206801F00EFBA8
:102C60002068816941F4006181612068816921F4F3
:102C700080618161206881692A6941EA022181615C
:102C8000D2E7206801F026FB2068C16941F0080105
:102C9000C1612068C16921F00401C1612068C16976
:102CA0002A69114311E0206801F040FB2068C169E6
:102CB00041F40061C1612068C16921F48061C16192
:102CC0002068C1692A6941EA0221C161ACE710B5F7
:102CD000040003D094F83D0010B107E0012010BDBE
:102CE000002084F83C00204600F01EF8022084F802
:102CF0003D00211D206801F03DFA012084F84600C6
:102D000084F83E0084F83F0084F8400084F84100D5
:102D100084F8420084F8430084F8440084F84500B5
:102D200084F83D00002010BD7047704710B5044680
:102D3000022249B104290ED0082913D094F8410089
:102D4000012816D0012010BD94F83E000128F9D1C9
:102D500084F83E200FE094F83F000128F2D184F877
:102D60003F2008E094F840000128EBD184F840208F
:102D700001E084F841200122206801F037FA0F4970
:102D80002068884203D1426C42F4004242642068C9
:102D9000884208D0B0F1804F05D00949884202D05E
:102DA0000849884204D1816801F00701062903D04F
:102DB000016841F001010160002010BD002C0140BC
:102DC00000040040000800402DE9F047234CA042D9
:102DD00026D1234D6978DFF88C901D264FF001082D
:102DE000002789B12046012900681BD0022917D18C
:102DF00040F2BA31C162E1602068476201211A489D
:102E0000FEF73CFAC0B11DE0012208214846FEF75A
:102E1000C2FD85F801802068C662E66020684762CE
:102E2000BDE8F087C662E660206847620E48FEF79C
:102E3000C3FA02206870F3E70B48FEF7D2F8686225
:102E400085F80880002208214846FEF7A4FD6F702F
:102E5000BDE8F0470148FFF78EBD0000CC0100201F
:102E60008C00002000080140D0000020704770470F
:102E700070470000F8B5016804460868CA684B69E5
:102E800010F00F0F4FF0000559D003F0010602F4C7
:102E90009077374365D0C10705D0D10503D5616C64
:102EA00041F001016164410705D5D90703D0616C88
:102EB00041F002016164810705D5D90703D0616C37
:102EC00041F004016164010707D502F0200131439C
:102ED00003D0616C41F008016164616C00293AD053
:102EE000800604D5900602D5204601F021FB20681B
:102EF0004069616CC0F38010090700D460B32046BC
:102F000001F0E1FA20684069400621D520681430BC
:102F100050E8001F21F0400140E80012002AF5D1DE
:102F2000E06BA8B16D494163E06BFEF7C9FA002878
:102F300011D0E06B416B01B0BDE8F040084783065B
:102F40000FD593060DD52046BDE8F84001F0F0BA44
:102F50002046FFF78DFFF8BD2046FFF789FF656427
:102F6000F8BD266B2023012E7CD1C6067AD5D60665
:102F700078D508684868009048694FF00206400616
:102F800040D5E16B086840680004000CE8D0A28DD1
:102F90008242E5D9E085886920282DD020680C3050
:102FA00050E8001F21F4807140E80012002AF5D19A
:102FB0002068143050E8001F21F0010140E80012A1
:102FC000002AF5D12068143050E8001F21F040019C
:102FD00040E80012002AF5D184F8423025632068C9
:102FE0000C3050E8001F21F0100140E80012002AC8
:102FF000F5D1E06BFEF740FA6663A08DE18D401AD3
:1030000081B22AE0A08DE18D401A81B2E08D0028C6
:10301000A6D00029A4D022680C3252E8000F20F478
:10302000907042E80007002FF5D12068143050E876
:10303000002F22F0010240E80027002FF5D184F88C
:103040004230256320680C3050E8002F22F0100237
:1030500040E80023002BF5D166632046FFF707FF09
:10306000F8BDFFE705062BD5150629D594F84100D4
:103070002128F5D1A068B0F5805F01D12069B0B1F9
:10308000206A411C2162216800784860E08C401E63
:103090000004000CE084E3D12068C16821F08001C5
:1030A000C1602068C16841F04001C160D8E7206A72
:1030B0000088C0F308004860206A801C2062E5E7B1
:1030C0004006CDD55006CBD5CA68204622F0400236
:1030D000CA6084F8413000F0CBF8C1E72144000811
:1030E00070B5040004D094F84100002510B106E04A
:1030F000012070BD84F84050204600F023F82420C1
:1031000084F841002068C16821F40051C160204664
:1031100001F070FA2068016921F490410161206892
:10312000416921F02A0141612068C16841F40051E0
:10313000C1606564202084F8410084F84200656322
:10314000002070BD70B586B000250646009501953B
:10315000029503950068224988423FD12149886938
:1031600040F480408861886900F480400490886958
:1031700040F00400886188691B4C00F00400049052
:1031800048150090022001900320039069462046D4
:10319000FEF704FB2015CDE900056946204602959F
:1031A000FEF7FCFA124C114820601020C4E901051A
:1031B0008020C4E903056561A5612046E561FEF74D
:1031C00075FA08B1FDF779FEB46300221146252097
:1031D0006662FEF709FF2520FEF7F8FE06B070BD17
:1031E0000038014000100240000801404400024045
:1031F000EC0200207047000070B5044690F84100D2
:10320000202801D0022070BD49B342B32162A284BC
:10321000E28400206064212384F84130A56B114BC7
:10322000AB62A56B104BEB62A56B104B2B63A36BD2
:103230005863256813462A1DA06BFEF765FA2168BE
:103240006FF0400008602068143050E8001F41F023
:10325000800140E80012002AF5D1002070BD012055
:1032600070BD00007B440008BD44000831440008E4
:1032700070477047FEE701684A69D24352050FD490
:103280006FF480624A61002140F8301F20224273AF
:103290008173026942F004020261017301207047E8
:1032A000002070472DE9F84F0446006889460B9DC1
:1032B00001689846174641F4806101602068016802
:1032C00041F48071016000954FF0011B00225946C6
:1032D00020460A9B00F0E4F84FF4007A40B12068E1
:1032E0000068C00501D5C4F840A00320BDE8F88FF0
:1032F000216809F0FE0008612B46284920460A9AF9
:1033000000F016F9F0BB20684169806900902A46F8
:1033100020460A9900F0A2F940B1206C04283AD165
:103320002068016841F40071016034E0FEB2B8F138
:10333000010F09D02168380A08612A4620460A99F7
:1033400000F08CF90028E8D1206806612A46204662
:103350000A9900F083F90028DFD12068016841F460
:103360008071016000950022594620460A9B00F0BA
:1033700097F80028B3D1216809F0FF0040F0010060
:10338000086100E007E02B46044920460A9A00F055
:10339000CFF80028AAD00120A8E700000200010011
:1033A0002DE9F843044600680D46DDE908970168F9
:1033B0009846164641F4807101604B4600224FF05A
:1033C00001112046009700F06BF848B120680068B2
:1033D000C00502D54FF4007020640320BDE8F883D7
:1033E000216805F0FE0008613B464A461549204623
:1033F00000F09EF888B920684169806900903A46DB
:103400004946204600F02AF948B1206C042804D12E
:103410002068016841F4007101600120DEE7F5B227
:10342000B8F1010F09D02168300A08613A464946CF
:10343000204600F013F90028E7D12068056100203C
:10344000CCE700000200010070B516460D460446A8
:103450001EE02046FFF70FFF08B1012070BD681C79
:1034600016D0FEF79DFA801BA84200D885B92068C7
:103470004069C04340070BD5002044F8300F20219D
:103480006173A073216941F0200121612073E4E799
:1034900020684069C0434007DBD4002070BD0000B5
:1034A0002DE9F047984617460D460446C1F30746F6
:1034B000DDF820902AE000BFB8F1FF3F26D0FEF7EC
:1034C0006FFAA0EB0901414502D8B8F1000F1DD1F8
:1034D0002068012E16D0806925EA00000004000C47
:1034E00012D00020B84211D1002044F8300F202122
:1034F0006173A073216941F02001216120730120D3
:10350000BDE8F0874069E7E70120EBE72068012E7E
:103510000AD0806925EA00000004000C06D00020D3
:10352000B842C9D00020EBE74069F3E70120F7E794
:103530002DE9F047984616460D4604464FF000091F
:103540004FF0200AC1F3074723E020684069C043D9
:10355000400515D42068016841F4007101602168BC
:103560006FF480604861C4F8309084F83DA084F81E
:103570003E90216C41F00401216484F83C9021E0EC
:10358000701C06D0FEF70CFAA0EB0800B04203D87E
:1035900016B1012F1FD021E02068012F15D08069BE
:1035A00025EA00000004000C18D000BF44F8309F4A
:1035B00084F80DA084F80E90216941F0200121616A
:1035C00084F80C900120BDE8F087406925EA0000EE
:1035D0000004000CEAD12068406901E0206880699D
:1035E00025EA00000004000CAFD1ECE72DE9F04122
:1035F000002590460E460446202728E04069C04337
:10360000C0060CD454F8301B6FF01000486144F829
:1036100010596777A577206A2062257714E0FEF7B6
:10362000BFF9A0EB0800B04200D886B92068406915
:10363000C04340060BD544F8305F6773A57320691B
:1036400040F02000206125730120BDE8F081206852
:103650004169C9434906D1D40020F6E770B5164642
:103660000D4604461EE02046FFF705FE08B1012086
:1036700070BD681C16D0FEF793F9801BA84200D8D5
:1036800085B920684069C04300060BD5002044F886
:10369000300F20216173A073216941F02001216165
:1036A0002073E4E720684069C0430006DBD40020B3
:1036B00070BD000070B501220B4D940321462846D1
:1036C000FEF769F90122D60331462846FEF763F971
:1036D000002231462846FEF75EF921462846BDE81D
:1036E00070400022FEF757B90010014070B50A4C37
:1036F000012291032046FEF74EF94FF400450022C7
:1037000029462046FEF747F929462046BDE8704085
:103710000122FEF740B900000010014070B50122FF
:10372000064D940321462846FEF735F921462846E2
:10373000BDE870400022FEF72EB9000000100140E5
:103740003EB500211148009101910F4A029102609B
:1037500081600173017501244FF460220461C2612C
:103760004160FDF7AFFC08B1FDF7A7FB0420CDE9F0
:1037700000040620029069460448FDF7B3FB0028C8
:1037800001D0FDF79AFB3EBD00240140D00000208F
:103790003EB500211148009101910F4A029102604B
:1037A00081600173017501244FF460220461C261DC
:1037B0004160FDF787FC08B1FDF77FFB0220CDE9F2
:1037C00000040620029069460448FDF78BFB0028A0
:1037D00001D0FDF772FB3EBD002801400001002032
:1037E000094808B5416941F0010141614069002281
:1037F00000F00100009011460E20FEF7F5FBBDE839
:1038000008400E20FEF7E2BB001002402DE9F04315
:1038100085B0002542480095019502950395816980
:1038200041F010018161816901F010010491816909
:1038300041F020018161816901F0200104918169D9
:1038400041F004018161816901F004010491816901
:1038500041F0080181618069324F00F00800049056
:1038600000224FF460413846FEF795F8DFF8B88043
:10387000012222214046FEF78EF800220821404610
:10388000FEF789F8DFF8A49000224FF4C0514846B3
:10389000FEF781F87814012402268DE8710069464C
:1038A0003846FDF77BFF4FF44040CDE90004CDE9F9
:1038B000024669463846FDF771FF0A208DE871001F
:1038C00069464046FDF76AFF2027CDE90074CDE93F
:1038D000024669464046FDF761FFE002CDE900047B
:1038E000CDE9024669464846FDF758FF20038DE8BA
:1038F000710069464846FDF751FF1020CDE90005EB
:10390000694648460295FDF749FF0097CDE9015603
:1039100069464846FDF742FF05B0BDE8F083000068
:10392000001002400010014000080140000C01405E
:103930000D4810B50B4901600C49416000214FF45E
:1039400080428160C0E9031241618161C16101620D
:10395000FEF72CF8002803D0BDE81040FDF7ADBA03
:1039600010BD00000054004030010020A08601007E
:1039700010B596B000240F941094119412941394DF
:103980001C2108A81494FCF7E4FB20216846FCF7EE
:10399000E0FB2A482849016040F2CF21C0E9011428
:1039A00040F2E731C0E903148021C0E90541FEF788
:1039B000F5FE08B1FDF781FA4FF480500F900FA982
:1039C0001E48FEF7F0FF08B1FDF777FA1B48FFF736
:1039D0007EF908B1FDF771FA139413A917481494EE
:1039E000FEF7A8FE08B1FDF768FA6020089040F2E3
:1039F000F310CDE909040C940D940C2208A90F488A
:103A00000E94FFF7FEF808B1FDF757FA00944FF453
:103A10000050CDE90440029401940394694607489C
:103A20000794FEF75DFE08B1FDF747FA0348FFF77C
:103A3000C1F816B010BD0000002C01408401002028
:103A400010B586B0002417480094019402940394A2
:103A500004944FF080410594016040F2CF21C0E909
:103A6000011440F2E731C0E9031480218161FEF7BF
:103A700095FE08B1FDF721FA4FF480500090694699
:103A80000848FEF790FF08B1FDF717FA049404A95F
:103A900004480594FEF74EFE002801D0FDF70DFA0C
:103AA00006B010BDCC01002010B586B00024174828
:103AB00000940194029403940494134905940160C2
:103AC0004721C0E901144FF6FF71C0E903148021BA
:103AD0008161FEF763FE08B1FDF7EFF94FF4805006
:103AE000009069460948FEF75EFF08B1FDF7E5F969
:103AF000049404A905480594FEF71CFE002801D093
:103B0000FDF7DBF906B010BD0004004014020020F0
:103B100010B586B0002417480094019402940394D1
:103B200004941349059401604721C0E901147C21E4
:103B3000C0E9031480218161FEF730FE08B1FDF772
:103B4000BCF94FF48050009069460A48FEF72BFFFD
:103B500008B1FDF7B2F9049404A906480594FEF7EC
:103B6000E9FD002801D0FDF7A8F906B010BD00005E
:103B7000000800405C0200200C4810B50A490160B2
:103B80004FF4E1314160002181600C22C160C0E945
:103B900004128161C161FFF7A3FA002803D0BDE8D8
:103BA0001040FDF78AB910BD00380140A402002082
:103BB000FEE7FEE770B52548FDF7FEFB244C254DDA
:103BC000E078401CC2B2E270642A09D21F48FDF7B7
:103BD00008FAE17845F8210021690844206170BDA8
:103BE0000020216905E000BF55F82030401C194431
:103BF00080B29042F8D3B1FBF2F0FCF72DFD164EE7
:103C00004FF066352A463346FCF729FC6FF00B026D
:103C1000FCF706FDFCF76DFDFCF758FD2A46334620
:103C2000FCF78FFC00220D4BFCF719FC00220C4B1B
:103C3000FCF70FFCFCF75DFD606100202061E07087
:103C4000BDE8704064210348FCF783BA00010020FE
:103C50008C0000208803002066660A40000059405E
:103C600000003E4070B50024002104F1B00000F0D7
:103C70001AF90021084600F016F90021102000F082
:103C800012F900250121002000F00DF96D1CEDB2A4
:103C9000802DF7D3641CE4B2082CE5D370BD00007E
:103CA00030B585B0002002904C48816941F0080190
:103CB000816180694FF4406400F0080004900120A5
:103CC000CDE900400220464D039069462846FDF7A5
:103CD00065FD012221462846FDF75DFEC820FDF75F
:103CE0004BFD0021AE2000F0DEF80021084600F078
:103CF000DAF80021102000F0D6F80021402000F072
:103D0000D2F80021812000F0CEF80021CF2000F071
:103D1000CAF80021A12000F0C6F80021C82000F058
:103D2000C2F80021A62000F0BEF80021A82000F073
:103D3000BAF800213F2000F0B6F80021D32000F0AF
:103D4000B2F80021084600F0AEF80021D52000F0BE
:103D5000AAF80021F02000F0A6F80021D92000F0F8
:103D6000A2F80021F12000F09EF80021DA2000F0F6
:103D70009AF80021122000F096F80021DB2000F0D4
:103D800092F80021402000F08EF80021202000F061
:103D90008AF80021022000F086F800218D2000F032
:103DA00082F80021142000F07EF80021A42000F009
:103DB0007AF80021A62000F076F80021AF2000F06C
:103DC00072F80021AF2000F06EF8FFF74BFF0021E2
:103DD000084600F007F805B030BD000000100240B2
:103DE000000C014010B50A460446002102F1B00063
:103DF00000F059F8102040EA1410002100F053F8A8
:103E000004F00F00BDE81040002100F04CB80000A5
:103E10002DE9F041203A00240D468046D7B27F2894
:103E200003D900208D1C8046EDB22946FFF7DAFF4A
:103E30000F4E00BF04EB07100121305C00F033F897
:103E4000641CE4B2082CF5D36D1CE9B24046FFF7C0
:103E5000C9FF002404EB071030440121007A00F070
:103E600022F8641CE4B2082CF4D3BDE8F081000011
:103E7000AC5600082DE9F04117460E4604460025D1
:103E80000CE031462046FFF7C3FF0834E4B2782C3B
:103E900002D90024B61CF6B26D1CEDB27A5D002A80
:103EA000EFD1BDE8F081C0B209B100F04CBC00F028
:103EB00033BC000010B52E4C607800282DD00128AE
:103EC00055D12C480068FCF701FC02460B462AA19C
:103ED0002D4800F04FFC2C4A01210920FFF7CAFFB2
:103EE0002A480068FCF7F2FB02460B4628A1264848
:103EF00000F040FC244A03210920FFF7BBFF207893
:103F0000012832D026A1204800F034FC1E4A0621A8
:103F10001220BDE81040FFF7ADBF254825A102687B
:103F2000194800F027FC184A01210920FFF7A2FFD9
:103F300024480068FCF7CAFB02460B4622A112483F
:103F400000F018FC104A03210920FFF793FF2248D4
:103F50000068FCF7BBFB02460B4620A10A4800F0B4
:103F600009FC0521084A0920D3E70EA1CBE710BDC3
:103F700010000020A000002020204E3A252D2E31D8
:103F8000662064422000000030030020B4000020BE
:103F90002020443A252D2E31662075672F6D330081
:103FA000206E6F74206578636565642000000000F2
:103FB000BC00002020204C583A20252D6420786C2D
:103FC00073000000A80000202020483A20252D2E54
:103FD0003166202525524800AC0000202020543AAC
:103FE00020252D2E316620430000000070B52B4C9B
:103FF0002B4D206B962801D900204CE0294E142827
:1040000013D8FCF729FB00223346FCF79AFAFCF799
:1040100070FBFCF75BFB4FF03332234BFCF71FFACE
:1040200001F0D6F80022214B29E0552814D80F388A
:10403000FCF712FB00221E4BFCF783FAFCF759FB3E
:10404000FCF744FB00224FF04043FCF708FA01F074
:10405000BFF80022174B12E05538FCF7FDFA00229A
:10406000154BFCF76EFAFCF744FBFCF72FFB002224
:10407000124BFCF7F4F901F0ABF800223346FCF7E1
:10408000EEF9FCF70AFB608181B24FF47A7081424D
:1040900000D9608160892968086470BD8C000020A7
:1040A0008401002000002E403333F3BF00407F40E6
:1040B000008051400000594000405040000008C0BE
:1040C00070477047FDF72ABF30B593B02821684686
:1040D000FCF73FF814210AA8FCF73BF80025012063
:1040E0000F9510951195010412958DE82300049009
:1040F0004FF4E010CDE90810022407946846FEF75B
:1041000049F908B172B6FEE70AA90F2081E831002B
:104110004FF48060CDE90D0502210AA8FEF75EF894
:1041200008B172B6FEE74FF4004011900F940FA84B
:10413000FDF7DEFF002801D072B6FEE713B030BDF8
:10414000704700000148FEF79DBC0000840100207C
:104150000148FEF797BC0000CC0100200148FEF7A3
:1041600091BC0000140200200148FEF78BBC000047
:104170005C020020F0B50268194B1A4C1A4D4FF042
:104180008047984205D0B84203D0A04201D0A8424F
:1041900003D122F070064A683243984205D0B842F3
:1041A00003D0A04201D0A84203D122F44074CA68CF
:1041B00022434C6922F08002224302608A68C26274
:1041C0000A688262984201D1096901630121416153
:1041D0000169C90703D0016921F001010161F0BD46
:1041E000002C0140000400400008004010B501F020
:1041F0001F030121046A99408C430462016A9A40BA
:104200001143016210BD10B5846842EA032224F410
:104210007F440A432243826010BD826822F070020C
:104220000A4342F0070181607047000030B5036A1D
:10423000026A22F0010202624268846924F0730576
:104240000C682C4323F002058B682B430A4DA842CF
:104250000BD123F00805CB6822F440722B434D6943
:1042600023F0040315438A692A4342608461496844
:104270004163036230BD0000002C014030B5026A8A
:10428000036A23F010030362436884690D6824F411
:10429000E64444EA05248D6822F0200242EA051231
:1042A0000B4DA8420ED1CD6822F0800242EA0512E1
:1042B0004D6923F4406343EA85038D6922F040028F
:1042C00043EA85034360846149688163026230BDCB
:1042D000002C014030B5036A026A22F48072026247
:1042E0004268C46923F4007324F073050C682C43FE
:1042F0008D6843EA05230C4DA8420ED1CD6823F406
:10430000006343EA05234D6922F4405242EA051254
:104310008D6923F4806342EA05124260C4614968F2
:10432000C163036230BD0000002C014030B5046A57
:10433000026A22F4805202624268C3690D6823F463
:10434000E64343EA05238D6824F4005444EA053427
:10435000064DA84204D14D6922F4804242EA8512FA
:104360004260C36149680164046230BD002C0140B1
:1043700010B5036A046A24F001040462846924F01D
:10438000F00444EA021423F00A020A438461026240
:1043900010BD10B5036A046A24F010040462846935
:1043A00023F0A00324F4704444EA023243EA0111EA
:1043B0008261016210BD000010B514211148FBF7A5
:1043C000C8FE11480F4C006820601048006860600B
:1043D0000F480068FCF73BF9A0600E480522A4F1E5
:1043E00026010068E0600C4800682061204601F06A
:1043F00031F8A4F12601BDE8104064220748FEF719
:10440000FBBE000074030020AC000020A8000020C8
:10441000BC000020A0000020B4000020A402002066
:1044200010B5406A0021C185C184FEF721FD10BD91
:1044300070B5446A2068406994F84110C0F3C01018
:104440000025212904D118B1E584204600F062F846
:104450002068406994F84210C0F38010222904D1EA
:1044600018B1E585204600F02EF8606C40F0100091
:1044700060642046FEF7FCFC70BD10B50146406A42
:1044800009680968890616D40021C18401681431BD
:1044900051E8002F22F0800241E80023002BF5D1E3
:1044A00001680C3151E8002F42F0400241E800233E
:1044B000002BF5D110BDFEF7DBFE10BD10B5406A34
:1044C000FEF7D7FE10BD01680C3151E8002F22F431
:1044D000907241E80023002BF5D10168143151E8B6
:1044E000002F22F0010241E80023002BF5D1016BDF
:1044F000012909D101680C3151E8002F22F0100286
:1045000041E80023002BF5D1202180F84210002142
:104510000163704701680C3151E8002F22F0C0029E
:1045200041E80023002BF5D1202180F8411070478D
:1045300008B590F84210222901D0022008BD8268F7
:104540004FF480539A4201D1016921B1816A9A42A4
:104550001BD04AB10AE00268816A5268C2F30802BD
:104560000A80816A891C08E0026972B10268526897
:1045700002F07F020A70816A491C8162C18D491E66
:104580000904090CC18503D01BE002685268F1E7F9
:104590000168CA6822F02002CA600168CA6822F471
:1045A0008072CA6001684A6922F001024A612021D2
:1045B00080F8421000214163026B012A03D0FEF70C
:1045C00019FE002008BD016301680C3151E8002F7D
:1045D00022F0100241E80023002BF5D101680A689F
:1045E000D20602D50A6849680091818DFEF73FFC2A
:1045F000E7E7000070B5044600680169E26821F44D
:104600004051114301612169A06808436169084371
:104610002168CA6841F20C639A430243CA60206869
:104620004169A26921F44071114341611E4920682A
:10463000884202D1FDF778FE01E0FDF765FE00EB50
:10464000C00101EB0012606864218000B2FBF0F34E
:10465000B3FBF1F36FF018067343B2FBF0F5B2FB56
:10466000F0F605EB8305322303EB0515B5FBF1F5F9
:10467000B6FBF1F605F0F00505EB0615B2FBF0F61A
:10468000B2FBF0F0B0FBF1F06FF01802504306EB14
:10469000800003EB0010B0FBF1F0216800F00F0088
:1046A0002844886070BD0000003801400148FEF7D2
:1046B000E1BB0000A4020020FEE700002DE9F0416C
:1046C000144F04464FF48046002231463846FDF729
:1046D00062F900254FF4004804F08000802816D0CD
:1046E000002241463846FDF756F96006040E0122C5
:1046F00031463846FDF74FF9002231463846FDF77E
:104700004AF96D1CEDB2082DE6D3BDE8F081012217
:10471000E7E700000010014010B50446FEF7CAFFAD
:104720007820FFF7CBFFFEF7F9FF0020FFF7C6FF69
:10473000FEF7F4FF2046FFF7C1FFFEF7EFFFBDE8ED
:104740001040FEF7D3BF10B50446FEF7B3FF782044
:10475000FFF7B4FFFEF7E2FF4020FFF7AFFFFEF7E1
:10476000DDFF2046FFF7AAFFFEF7D8FFBDE81040A7
:10477000FEF7BCBF0FB4084B10B504A902AA0398FA
:1047800000F070F9044602A9002000F002FD204666
:1047900010BC5DF814FB000093510008490050EA7A
:1047A000C12018BF04204A0D18BF40F0010040F29C
:1047B000FF72B2EB515F08BF40F00200012808BF52
:1047C000052070470907090E002804DB00F1E020EE
:1047D00080F80014704700F00F0000F1E02080F82E
:1047E000141D70472DE9F0414F1E00EBC701044630
:1047F000D1E9000115461E4637F006020DD02A46C3
:104800003346FBF72CFE7F1E04EBC703D3E90023DE
:10481000FBF77EFD37F00602F1D1022F25D0042FE1
:1048200013D0062F18BFBDE8F0812A463346FBF7A8
:1048300016FED4E90A23FBF76BFD2A463346FBF745
:104840000EFED4E90823FBF763FD2A463346FBF747
:1048500006FED4E90623FBF75BFD2A463346FBF749
:10486000FEFDD4E90423FBF753FD2A463346FBF74C
:10487000F6FDD4E90223FBF74BFD2A463346FBF74E
:10488000EEFDD4E90023BDE8F041FBF741BD012274
:10489000FBF7C6BE40F2013200204FF0E041FBF7CB
:1048A000BFBE0000024A00201107FBF7B9BE00009E
:1048B00001FDFFFF02E008C8121F08C1002AFAD15B
:1048C00070477047002001E001C1121F002AFBD190
:1048D000704700000149086070470000CC000020CC
:1048E0002DE9FF5F82B00021DDE90430020DDDF823
:1048F00040B0034318D044F61050A2F2FF324243B6
:104900001514119801281FD0A5EB0B00401C5FEA7D
:10491000000A4FF000064E4FDFF83891B04650467F
:1049200015D5CAF1000413E0119801244AA3012807
:1049300001D16FEA0B010298119AC0E90031C0E978
:10494000024206B0BDE8F09FCBF10000DFE704466D
:104950000021404A491842EB0450CDE9001012E012
:10496000E00707D032463B4640464946FBF777FD15
:104970008046894632463B4610461946FBF76FFD96
:1049800006460F466410002CEAD1DDE90401DDE99A
:104990000023BAF1000F06DAFBF761FD42464B46F1
:1049A000FBF75DFD05E0FBF7CCFD42464B46FBF710
:1049B000C8FD04460E460022284BFCF713F803D826
:1049C0004FF0FF30014607E00022254B20463146DC
:1049D000FBF79EFCFBF7D5FF102409E0002C0ADB57
:1049E0000A220023FBF7B7FE039B30321A55641EE0
:1049F00050EA0102F2D1641C039AC4F11103144479
:104A0000119A012A03D0012208430DD10AE008437C
:104A100004D000204FF0110B119072E7A3EB0B05AF
:104A20006D1E0DE05B4504DD4FF0000205F1010550
:104A300004E003DA4FF00002A5F10105002AECD0F2
:104A400002981199C0E90231C0E9004579E70000F8
:104A5000000014400000F03F300000000000F04370
:104A60000000E03F2DE9FF4F95B09B468946064682
:104A700000250FE2252877D100242746F84A012196
:104A8000059400E0044316F8013F203B01FA03F0CF
:104A90001042F7D130782A2811D06FF02F033078E8
:104AA000A0F13002092A16D8059A44F0020402EB5C
:104AB000820203EB42021044761C0590EFE759F89E
:104AC000042B0592002A03DA504244F40054059066
:104AD00044F00204761C30782E2816D116F8010F07
:104AE00044F004042A280DD06FF02F023078A0F192
:104AF0003003092B09D807EB870302EB4303C718E0
:104B0000761CF3E759F8047B761C30786C280FD0BC
:104B100006DC4C2817D068280DD06A2814D104E090
:104B2000742810D07A280FD10DE044F400140AE064
:104B300044F4801401E044F440147278824202D1BB
:104B400004F58014761C761C307866280BD013DCB4
:104B5000582877D009DC002875D04528F6D046289B
:104B6000F4D047281AD19DE118E0632835D0642895
:104B700079D0652812D195E1702873D008DC6728B8
:104B8000F1D069286FD06E280DD06F2806D1B5E01E
:104B900073282CD0752875D0782874D05A46179968
:104BA00090476D1C75E1C4F30250022809D0032818
:104BB0000DD0D9F8001004280DD00D6009F10409BA
:104BC00067E1D9F80010EA17C1E90052F6E7D9F811
:104BD00000100D80F2E70D70F0E719F8041B8DF856
:104BE000001000208DF80100EA46012003E059F88A
:104BF00004AB4FF0FF3061074FF0000102D40DE02D
:104C000008F101018846B9420FDA8045F8DB1AF84D
:104C100008100029F4D108E008F10101884681421A
:104C2000FADB1AF808100029F6D105985B46A0EBCC
:104C3000080721463846179A00F094FA284400EBFA
:104C4000080507E04DE029E10DE01AF8010B5A468E
:104C500017999047B8F10108F7D25B4621463846CC
:104C6000179A13E142E00A220092C4F302524FF075
:104C7000000A022A08D059F804CB032A4FEAEC7143
:104C80000AD00DE029E02AE009F1070121F007022E
:104C9000F2E802C1914609E00FFA8CFC4FEAEC7190
:104CA000042A03D14FFA8CFC4FEAEC71002907DA91
:104CB0000A460021DCF1000C61EB02012D2202E02A
:104CC000220504D52B228DF80420012203E0E207FF
:104CD00001D02022F7E7904659E00A2102E0102295
:104CE0000DE010214FF0000A00910BE010224FF070
:104CF000000A44F004040827009203E008224FF061
:104D0000000A0092C4F30252022A05D059F804CBDB
:104D10000021032A08D009E009F1070121F0070268
:104D2000F2E802C1914605E01FFA8CFC042A01D189
:104D30000CF0FF0C4FF00008220728D5702806D091
:104D4000009B83F0100353EA0A0305D00EE04022D3
:104D50008DF80420012208E05CEA010206D030222E
:104D60008DF804208DF8050002229046009B83F008
:104D7000080353EA0A030AD15CEA010201D162077F
:104D800005D530228DF804204FF001087F1E5828E9
:104D900004D034A003900EA802900DE036A0F9E7ED
:104DA00053466046009AFBF7D6FC84460398825C23
:104DB0000298401E029002705CEA0100F0D1029855
:104DC00006A9081A00F1200A600702D524F48034ED
:104DD00000E00127574502DDA7EB0A0000E00020B4
:104DE00000EB0A01009005984144401A0590E00349
:104DF00006D45B462146179A059800F0B3F905449E
:104E0000002706E001A85A46C05D179990476D1C1F
:104E10007F1C4745F6DBE0030CD55B462146179A1D
:104E2000059800F09FF9054404E030205A46179990
:104E300090476D1C0099481E00900029F5DC08E0A1
:104E4000029802995A460078491C02911799904796
:104E50006D1CBAF10001AAF1010AF1DC65E1000064
:104E60000928010030313233343536373839616240
:104E70006364656600000000303132333435363704
:104E800038394142434445460000000000F058F9DB
:104E90000544761C307800287FF4ECAD19B0284624
:104EA000BDE8F08F620700D4062709F1070222F05F
:104EB000070CFCE80223E14603F000485FEA080C17
:104EC00002D00FF2702C0DE05FEA045C02D50FF205
:104ED000682C07E05FEAC47C02D00FF2602C01E08E
:104EE000AFF2700C4FF0FF3823F00043CDF850C004
:104EF00065280CD006DC452809D046281DD0472857
:104F00003DD13DE0662818D067287ED138E00021E9
:104F1000112F01DB112000E0781CCDE9000106A96A
:104F20000EA8FFF7DDFCDDE90F010E9A03910021C9
:104F3000009207F1010A04914DE04FF00040009704
:104F4000CDE9011006A90EA8FFF7CAFCDDE90F02A2
:104F500003920E9B11990022DDF80CA0009304929D
:104F600011B9791C00EB010AB7EB0A0004D4C0F1B7
:104F7000FF3007F1010A0490AAEB0700019044E01A
:104F8000012F00DA01270021112F01DD112000E09F
:104F90003846CDE9000106A90EA8FFF7A1FCDDE91E
:104FA0000F010E9A0391002104910092BA46210745
:104FB0000CD40399514500DA8A46BAF1010F05DD98
:104FC000009AAAF10101515C302908D0B84202DAF6
:104FD00010F1040F06DA0121CDE9011015E0AAF164
:104FE0000101E9E7002805DC049901440491AAEBDA
:104FF000000102E0411C514500DD8A460499401A37
:10500000401C01904FF000400290200704D401980A
:10501000504501DBCDF8048000208DF84F00029848
:105020000DF14F07B0F1004F25D02B200E900298C4
:105030004FF0020800280CDA404202902D200E901A
:1050400007E00A210298FBF770FB3031029007F865
:10505000011DB8F10001A8F10108F2DC0298002856
:10506000EFD1791E0E980870307800F0200040F0E3
:10507000450007F8020D12A8C01B00F1070814989C
:10508000007800B1012000EB0A01019801EBE0710A
:1050900005984144401A401E0590E00306D45B4643
:1050A0002146179A059800F05DF805441498007899
:1050B00018B15A46179990476D1CE00324D55B46FA
:1050C0002146179A059800F04DF805441CE0049815
:1050D000002807DBDDE90301884203DD0098405C1E
:1050E000179901E0179930205A469047049805F126
:1050F0000105401C04900198401E019004D12E200F
:105100005A46179990476D1CBAF10001AAF1010A9D
:10511000DDDC05E017F8010B5A46179990476D1C26
:10512000B8F10001A8F10108F4DC5B462146179AAA
:105130000598ABE62D0000002B00000020000000C9
:105140002DE9F041044600251E461746880404D484
:1051500005E039462020B0476D1C641EF9D528466D
:10516000BDE8F0812DE9F041044600251E46904639
:10517000C80301D5302700E02027880404D505E0C6
:1051800041463846B0476D1C641EF9D52846BDE837
:10519000F0810A68531C0B601070704770B54FF6B1
:1051A000FA710A4D081A84B2286844622846FDF74D
:1051B0007BFB4FF6F971286801E0426A94B28C4299
:1051C000FBD3BDE870400148FDF7C2BB14020020CC
:1051D0002DE9F04D894BCE0F21F0004784B00546F4
:1051E0000C469F4230D38648874211D3C7F3130041
:1051F000284305D004B02846BDE8F04DFFF747BB73
:10520000002E1ABF00200146284604B0BDE8F08DEC
:105210007C4A2846FBF7E6FB07D20220FFF75AFB41
:1052200004B0BDE8F04DFFF735BB774A774B284611
:105230002146FBF7BFFB07D20220FFF74BFB04B070
:10524000BDE8F04DFFF72EBB7148B84248D2714817
:10525000874215D27048784400EBC6002146D0E959
:1052600000232846FBF7F5F8CDE900016B487844A8
:1052700000EBC600D0E900ABC6F10100861B26E0BA
:10528000674A684B28462146FBF7E9F8664A7A44A4
:1052900002EBC603D3E90023FBF73AF8FBF752FB16
:1052A0000646FBF73EFB07468846604A604BFBF725
:1052B000D6F82A462346FBF7CFF8CDE900015D4A30
:1052C0005D4B38464146FBF7CAF882468B46DDE91E
:1052D000000152465B46FBF7BCF805460C4618E059
:1052E0005648874214D2564A564B28462146FBF769
:1052F0000FF8554E00223346FBF774FB08D204B07A
:10530000334628462146BDE8F04D0022FBF700B8A1
:1053100000262A46234610461946FBF7A0F8804689
:1053200002464A480F460B4605217844FFF75AFAD1
:1053300042463B46FBF793F82A462346FBF78CF898
:1053400007468846E6B302460B4600204FF08041F0
:10535000FBF77FF8CDE902013A464346284621464D
:10536000FBF77DF8DDE90223FBF7EBF852465B46DD
:10537000FBF772F8DDE90023FBF76BF80022324BF4
:10538000FBF76AF86FF47F729642A2BF01EB0651F9
:1053900004B0BDE8F08D4FF07A5202EB0652114492
:1053A0002B4AFBF73DF904460D46FFF7F7F90428B1
:1053B00008BFFFF777FA204604B02946BDE8F08D14
:1053C000FFE700224FF08043FBF743F882460E468A
:1053D0003A46434628462146FBF741F852463346B3
:1053E000FBF7AFF82A462346FBF733F804B0002258
:1053F000BDE8F04D144BFBF72FB80000422E86405D
:105400000000F07FEF39FAFE51302DD5104987C0EA
:10541000422ED63FB2A2F03F560A00004E0A0000CC
:10542000FE822B654715F73F0E0A00000000E0FEE4
:10543000422EE63F763C7935EF39EA3D0000303EBA
:105440009C7500883CE4377E0000F03FA209000014
:1054500018FCFFFF2DE9F04791460D460646002453
:1054600034E000BF04EB4400401CC7B256F82400EF
:105470001E49FAF703FFFBF7FCF8E85556F824003D
:10548000FBF7F7F8C0B26421B0FBF1F201FB1200A8
:1054900005EB070888F8010056F824703846FBF73A
:1054A000E8F8C0B2FBF7D3F83946FAF7B2FE104974
:1054B000FAF7B2FEFBF70AF900220E4BFAF728FFC3
:1054C000FBF7EBF8641C88F80200E4B24C45C9D342
:1054D0005320287045202874074900202A5C0A546C
:1054E000401CC0B21428F9D3BDE8F0870000C842C0
:1054F000000020410000E03F5D0300202DE9F04165
:105500001F4F20213846FCF739FA012600251D4C93
:10551000012812D010213846FCF730FA01280ED0AD
:1055200025712079627920EA020142408243A1700C
:10553000E2706071012905D00DE02671F1E70220CB
:105540002071EEE76078401CC0B26070012800D97D
:105550006570FEF787FB0C480C4A4FF480510068D9
:10556000904206DD01223846FCF715FA2670BDE8A8
:10557000F08100223846FCF70EFA2570F7E70000AC
:10558000000C014010000020B40000200000C842C0
:105590004FF400510148FCF7F6B90000001001403B
:1055A000FCF7C4FC00F034F8FEF78EFDFEF72EF990
:1055B000FEF716F9FEF7BCF9FEF7C2F8FEF740FA5F
:1055C000FEF7E6F8FEF7A4FAFEF7D2F9FEF76CFA5A
:1055D000FEF7D2FAFEF764FBFEF744FB0A48FDF73C
:1055E0008BF90C210948FDF7A1FB08490020096847
:1055F0000864FBF721FB4FF47A70FCF7BDF800BF9D
:1056000000F00CF8FCE700005C02002084010020A0
:1056100001490920087070471800002070B5134C2C
:10562000002004F1080560701AE000BFFCF7B8F92B
:105630006060617801EB410105EB8102936852687B
:10564000C01A904209D355F82100804761786068FC
:1056500001EB410105EB810188606078401C6070BE
:105660002178C0B28842E1D370BD0000180000204C
:10567000010202030405060708090A0B0C0D0E0FB0
:105680001010010202030405060708090A0B0C0D9D
:105690000E0F1010000000000000000001020304C3
:1056A00006070809000000000102030400000000D2
:1056B000000000000000000000000000000000F8F2
:1056C00000000000000000333000000000100C0655
:1056D000100C0600000000000000000040C07840F0
:1056E000C0784000043F04043F040400007088FCBC
:1056F00008300000001820FF211E0000F008F00014
:10570000E018000000211C031E211E0000F0088884
:10571000700000001E2123241927211010160E00EE
:10572000000000000000000000000000000000E099
:1057300018040200000000071820400000020418AE
:10574000E00000000040201807000000404080F00A
:10575000804040000202010F01020200000000F040
:10576000000000000101011F010101000000000014
:105770000000000080B07000000000000000000089
:105780000000000000010101010101010000000012
:1057900000000000003030000000000000000000A9
:1057A00080601804006018060100000000E0100886
:1057B0000810E000000F102020100F00001010F85B
:1057C000000000000020203F20200000007008089A
:1057D000088870000030282422213000003008881A
:1057E000884830000018202020110E000000C02042
:1057F00010F8000000070424243F240000F8088863
:10580000880808000019212020110E0000E01088EF
:1058100088180000000F112020110E000038080821
:10582000C83808000000003F000000000070880831
:1058300008887000001C222121221C0000E01008B2
:105840000810E0000000312222110F00000000C00B
:10585000C0000000000000303000000000000080A8
:105860000000000000008060000000000000804098
:1058700020100800000102040810200040404040B1
:105880004040400004040404040404000008102004
:105890004080000000201008040201000070480849
:1058A0000808F0000000003036010000C030C828B1
:1058B000E810E0000718272423140B000000C0386C
:1058C000E0000000203C23020227382008F88888E6
:1058D00088700000203F202020110E00C0300808F2
:1058E00008083800071820202010080008F80808C9
:1058F0000810E000203F202020100F0008F88888C2
:10590000E8081000203F20202320180008F888888D
:10591000E8081000203F200003000000C030080805
:105920000838000007182020221E020008F808008E
:105930000008F808203F210101213F20000808F855
:10594000080800000020203F202000000000080878
:10595000F8080800C08080807F00000008F888C038
:1059600028180800203F20012638200008F80800E9
:1059700000000000203F20202020300008F8F80020
:10598000F8F80800203F003F003F200008F830C032
:105990000008F808203F200007183F00E010080822
:1059A0000810E0000F10202020100F0008F8080851
:1059B0000808F000203F210101010000E010080864
:1059C0000810E0000F18242438504F0008F8888889
:1059D00088887000203F2000030C30200070880869
:1059E000080838000038202121221C00180808F877
:1059F000080818000000203F2000000008F80800F8
:105A00000008F808001F202020201F0008788800C8
:105A100000C83808000007380E010000F80800F838
:105A20000008F800033C0700073C030008186880E2
:105A30008068180820302C03032C30200838C80058
:105A4000C83808000000203F2000000010080808A7
:105A5000C83808002038262120201800000000FE49
:105A6000020202000000007F40404000000C30C0F5
:105A700000000000000000010638C0000002020221
:105A8000FE000000004040407F00000000000402D3
:105A900002020400000000000000000000000000FE
:105AA00000000000808080808080808000020204EE
:105AB00000000000000000000000000000008080E6
:105AC000808000000019242222223F2008F8008054
:105AD00080000000003F112020110E000000008017
